:1000000078EF06F00000000000EF00F000000000B4
:0A0010000000000000000000F3D71C
:10001C000F0E0C6E470E0D6E0D2EFED70C2EFCD750
:06002C00000000001200BC
:06003200000000001200B6
:0A003800210E0D6E0D2EFED71200F2
:0E004200026A016A006A086A036A000E120070
:100050000B840BAE33EF00F0010E036E026A016AEF
:0A006000006A0A360232FF0E120099
:08006A000AAE029E000E120016
:1000720066BE02D08C9E01D08C8E66BC02D08C9C57
:1000820001D08C8C66BA02D08C9A01D08C8A66B868
:1000920002D08C9801D08C8848B002D08D8401D0D7
:1000A2008D948D82C5DF8D9266B602D08C9E01D072
:1000B2008C8E66B402D08C9C01D08C8C66B202D03D
:1000C2008C9A01D08C8A66B002D08C9801D08C8830
:1000D20048B002D08D8401D08D948D82A9DF8D929B
:0C00E20048A002D09ADF01D0A6DF120077
:1000EE000B820BAE81EF00F00368026801680068B6
:0800FE000A360232FF0E120067
:0C010600489062C066F0B2DF4880120032
:0C0112000E0E0D6E0D2EFED70000120028
:10011E000C6A0E6A0250D8A4A8EF00F001C002F0DB
:10012E0000C001F0006A0E860250D8A4A8EF00F0BD
:10013E0001C002F0016A0E960E880250D8B4BAEFD2
:10014E0000F00E50035ED8A4D8A0BFEF00F0D890F8
:10015E0002BEC4EF00F0003601360236032EAFEFBA
:10016E0000F0BFEF00F0010E0C6E64DFC7EF00F081
:10017E00020E0C6E66DFC7EF00F0040E0C6E6EDF23
:02018E0012005D
:10019000086A096A000E076203644DEF01F002501D
:1001A00006180A6E075003267E0ED8A0DEEF00F078
:1001B000035ED8B051EF01F0E2EF00F0035ED8A08B
:1001C00055EF01F0028E068E02C00EF001C00BF05A
:1001D00000C00DF000500402F4CF0CF001500502F5
:1001E000F4CF00F0F3CF08F00402F3500C26F450E3
:1001F0000822000E00220D500502F3500C26F45088
:100200000822000E002202500402F3500826F45087
:10021000002202500502016A000E0122F35000265E
:10022000F45001220D500602F3500826F45000222B
:10023000026A000E012202220B500602F350002631
:10024000F4500122000E02220E500602F350012645
:10025000F450022202BE35EF01F0083600360136B6
:1002600002360306D8B455EF01F048EF01F0D8800C
:10027000800E08640030000E002201220222D8A065
:1002800048EF01F0023201320032034A51EF01F02F
:100290000AAE029E000E57EF01F0010ED2DE57EFBC
:1002A00001F0020E24DF57EF01F0040ED1DE120040
:1002B00062C004F063C005F004C002F005C003F0A2
:1002C000044A052A64C000F065C001F0644A652A4A
:1002D00000C0E9FF01C0EAFF02C0E1FF03C0E2FF86
:1002E000EECFE6FF02C0E9FF03C0EAFFEE5201E0F5
:0C02F000E3D762C000F063C001F0120010
:1002FC000A6A0350D8A40A800750D8A40A820A506C
:10030C00D8B4E1EF01F0030AD8B49AEF01F00AB0C7
:10031C0095EF01F006AEDFEF01F0DDEF01F002AE7C
:10032C00DDEF01F0DFEF01F00250800B0A6E029E50
:10033C000650800B069E0A18D8B4ABEF01F00A5099
:10034C00D8B4DDEF01F0DFEF01F00750035CD8B457
:10035C00B5EF01F0D8A0D1EF01F0D7EF01F00650C6
:10036C00025CD8B4BFEF01F0D8A0D1EF01F0D7EF09
:10037C0001F00550015CD8B4C9EF01F0D8A0D1EF61
:10038C0001F0D7EF01F00450005CD8B4E1EF01F0BC
:10039C00D8B0D7EF01F00A52D8B4DFEF01F0DDEF9F
:1003AC0001F00A52D8B4DDEF01F0DFEF01F0D88094
:0E03BC001200D8901200D880D88412001200CF
:1003CA000D6A086A0050D8B4000C04180A6E0ABEF6
:1003DA000D1E0B6A04AE02D0041E042A00AE02D01F
:1003EA00001E002A005004100A6E0ABE1FD00450D4
:1003FA00085E003600340836045008260036060E19
:10040A000C6E00340836045000B0085E00A00826BE
:10041A0000360C2EF6D700A008260BB015D00DAE6C
:10042A00000C001E002A081E082A000C04AE09D07F
:10043A0000BE04D00050086E006AF1D7006A002A94
:10044A00000C001E0B2AD3D7082A0450085CD8A433
:0E045A00E6D7086A002A00AEE2D7FF0C1200B7
:10046800969296949598959A959C959E8D928D9432
:100478008C9E8C9C8C9A8C98CDDDCCDDCBDD8C8AC7
:100488008C888D82D2DD8D92C5DD8D82CEDD8D92F8
:10049800C1DD8D82CADD8D92BDDD8C988D82C5DD72
:1004A8008D92B8DD8D82C1DD8D928C9A8C8E8D8275
:1004B800BCDD8D92AFDD8C9E8C888D82B6DD8D92F1
:1004C8008C988D82B2DD8D92A5DD8D82AEDD8D9208
:1004D8008C888D82AADD8D929DDD8C988D82A5DD1C
:1004E8008D928C8E8C8C8C8A8C888D829EDD8D92E0
:0604F80091DD48801200B6
:1004FE000FD0800E506E19D0C00E506E16D0940EC6
:10050E00506E13D0D40E506E10D0800E506E0DD093
:10051E005050010AEEE05050020AEEE05050030A2D
:10052E00EEE05050040AEEE0F0D75104006E505049
:10053E00002600C050F000C066F094DD4890546A6A
:10054E0054505224E96E000E5320EA6EEE520BE028
:10055E0054505224E96E000E5320EA6EEECF62F034
:0A056E00CBDD542AEDD748801200BF
:100578005D6A5E6A5F6A606A616A50C059F051C01C
:100588005AF052C05BF053C05CF05C50FF0A08E1BF
:100598005B50FF0A05E15A50FF0A02E15950FF0A71
:1005A8000CE154C062F055C063F03B0E646E000E5F
:1005B800656E7ADE030E006E56D2010E576E5BAE84
:1005C8000FD0800E5B18006E00C05BF0572A5E2AC1
:1005D80054C0E1FF55C0E2FF2D0EE66E544A552A7D
:1005E800000E006E5C1808E100505B1805E1005031
:1005F8005A1802E15950000A0BE154C062F055C084
:1006080063F0390E646E000E656E4EDE006A2BD202
:100618005C50FF0A08E15B50000A05E15A50000AE5
:1006280002E15950000A0CE154C062F055C063F071
:100638003F0E646E000E656E37DE57C000F013D2B1
:10064800000E046E000E056E000E066E7F0E076E1D
:1006580059C000F05AC001F05BC002F05CC003F062
:1006680049DE010ED8B0000E006E00521BE059C0E2
:1006780000F05AC001F05BC002F05CC003F0000E4D
:10068800046E000E056E200E066E820E076E7CDD6F
:1006980000C059F001C05AF002C05BF003C05CF022
:1006A8006106CED7000E046E000E056E200E066E93
:1006B800820E076E59C000F05AC001F05BC002F00C
:1006C8005CC003F017DE000ED8B0010E006E0052B9
:1006D8001BE059C000F05AC001F05BC002F05CC0DA
:1006E80003F0CD0E046ECC0E056E4C0E066E7B0E1E
:1006F800076E4ADD00C059F001C05AF002C05BF035
:1007080003C05CF0612ACED7FF0E5914086EFF0EA5
:100718005A14096E7F0E5B140A6E000E5C140B6E81
:1007280008C004F009C005F00AC006F00BC007F0C5
:1007380004360490053606360736000E5914006E46
:10074800000E5A14016E000E5B14026EFF0E5C144C
:10075800036E00C059F001C05AF002C05BF003C03C
:100768005CF004505910006E05505A10016E065086
:100778005B10026E07505C10036E00C059F001C098
:100788005AF002C05BF003C05CF07F0E5C5C006E48
:1007980000C058F0010E5C6E00C004F059C000F0B3
:1007A8005AC001F05BC002F05CC003F0045007E0DF
:1007B80000360090013602360336FF0FF8D700C026
:1007C80059F001C05AF002C05BF003C05CF054C09D
:1007D800E1FF55C0E2FF5C50300FE66E544A552ADF
:1007E8005E2A800E6118006E800E010A005C08E324
:1007F800800E060A006E800E6118005C01E30BD0C3
:1008080054C0E1FF55C0E2FF2E0EE66E544A552A49
:10081800010E5D6E5E2A060E586E5850000A58E0AA
:100828005C6A59C000F05AC001F05BC002F05CC0BD
:1008380003F0003600900136023603360036009089
:10084800013602360336595000265A5001225B50B1
:1008580002225C50032200C059F001C05AF002C0C5
:100868005BF003C05CF059C000F05AC001F05BC0F7
:1008780002F05CC003F00036009001360236033601
:1008880000C059F001C05AF002C05BF003C05CF030
:1008980054C0E1FF55C0E2FF5C50300FE66E544A89
:1008A800552A5E2A5D50000A11E161066150000A6E
:1008B8000DE1010E606E54C0E1FF55C0E2FF2E0E3F
:1008C800E66E544A552A010E5D6E5E2A5806A5D773
:1008D8006050010AD8B45E06FF0E5424E96EFF0E7C
:1008E8005520EA6EEE502E0A05E1010E545E000E08
:1008F800555A5E06800E000A006E800E6118005C74
:1009080002E2010E5F6E800E6118006E800E000A12
:10091800005C02E2020E5F6E61C058F0800E090AA8
:10092800006E800E6118005C02E35F2A02D0020E9E
:100938005F265F505E24016E026A000E0222800E5E
:100948000218006E800E005C02E15650015C0AE25B
:1009580054C0E1FF55C0E2FF300EE66E544A552AF6
:100968005E2AE7D76150000A41E054C0E1FF55C054
:10097800E2FF650EE66E544A552A800E6118006E35
:10098800800E000A005C0BE254C0E1FF55C0E2FF94
:100998002D0EE66E544A552A61500008616E61C0FA
:1009A80058F0800E090A006E800E6118005C0EE295
:1009B8000A0E046E58C000F004DD54C0E1FF55C0B3
:1009C800E2FF0050300FE66E544A552A0A0E046EB4
:1009D80058C000F0F6DC08C000F054C0E1FF55C074
:1009E800E2FF0050300FE66E544A552A5F505E24ED
:1009F800006E00C05EF05650005C016E01C058F0F9
:100A0800800E000A006E800E0118005C0EE2800E57
:100A1800000A006E800E5818005C06E25806010EA7
:100A2800545E000E555AF3D718D0800E5818006E31
:100A3800800E000A005C11E2800E5818006E800ECD
:100A4800000A005C0AE2582A54C0E1FF55C0E2FFE0
:100A5800300EE66E544A552AEFD754C0E1FF55C010
:080A6800E2FFE66A006A1200D9
:100A700082A412D082A010D0020E826E020E0B6EE3
:100A8000040E0C6EBA0E0D6E0D2EFED70C2EFCD77A
:100A90000B2EFAD7000013D082A411D082A60FD05B
:100AA000100E826E020E0B6E040E0C6EBA0E0D6EE0
:100AB0000D2EFED70C2EFCD70B2EFAD700001200FD
:100AC0000050086E0150006E016A026A036A0B6AE8
:100AD0000C6A960E036E0A6A00C001F008C000F0AE
:0A0AE000086A026A8FEC00F01200B1
:100AEA00C26AC00EC212431C006E0050C116C18CED
:100AFA00C18E50C000F000360090003600900036DB
:100B0A0000900050C212C28089EC00F0C284C2A4D4
:100B1A0001D0FDD7C4CF01F0006AC3500012000E05
:060B2A000112C29012004E
:100B30009BDC010E666E39EC00F00C0E666E39EC33
:100B400000F0010E506E010E516E1D0E526E000E21
:060B5000536ED5DC12001B
:0A0B5600956AFF0E926E966A120077
:0C0B6000030EC16E040E946E928212000F
:100B6C000900F5CFE6FF0006FBE10106F9E11200F2
:100B7C0049C004F04AC005F04BC006F04CC007F069
:100B8C00000E006E000E016E0C0E026E840E036ED3
:100B9C007EEC01F0010ED8B0000E006E00520AE09F
:100BAC00020E506E010E516E2E0E526E000E536ED2
:100BBC00A0DC2BD049C004F04AC005F04BC006F0B5
:100BCC004CC007F0000E006E000E016E700E026E2F
:100BDC00830E036E7EEC01F0000ED8B0010E006E99
:100BEC0000520AE0020E506E010E516E230E526E30
:100BFC00000E536E7EDC09D0020E506E010E516E4B
:0C0C0C00150E526E000E536E74DC1200C8
:100C180049C004F04AC005F04BC006F04CC007F0CC
:100C2800000E006E000E016E0C0E026E840E036E36
:100C38007EEC01F0010ED8B0000E006E005203E009
:100C4800828612DF1CD049C004F04AC005F04BC0B0
:100C580006F04CC007F0000E006E000E016E700E1C
:100C6800026E830E036E7EEC01F0000ED8B0010E0A
:100C7800006E005203E08280F7DE01D0826A120023
:100C880049C050F02EDF18DF000E046E000E056E0E
:100C98007A0E066E7D0E076EC8EC00F000C050F0AC
:100CA80001C051F002C052F003C053F04B0E546E15
:100CB800000E556E040E566E5BDC010E506E060E6D
:100CC800516E4B0E526E000E536E15DC020E0B6EFB
:100CD800040E0C6EBA0E0D6E0D2EFED70C2EFCD720
:080CE8000B2EFAD700001200E8
:100CF000AEEC06F035DF2FDF1BDF010E496E000E74
:100D00004A6EC2DF44C049F045C04AF046C04BF0CD
:100D100047C04CF033DF44C049F045C04AF046C0FC
:0C0D20004BF047C04CF078DFE8D7FFD75D
:100D5C0010EE15F02F0E006E010E016E2C0EF66EBD
:0E0D6C000D0EF76E000EF86EB6EC05F01200DC
:080D2C00526561636865640013
:060D340054656D703A00E9
:0B0D3A00496E6372656173696E6700AB
:0B0D450044656372656173696E6700AE
:020D5000300071
:040D52004E614E00A0
:040D5600494E4600BC
:010D5A000F89
:020000040030CA
:0D000100220F0EFF0181FF0FC00FE00F4026
:00000001FF
