:1000000063EF07F00000000000EF00F000000000C8
:0A0010000000000000000000F3D71C
:04001C0000001200CE
:10002000080E0C6E230E0D6E0D2EFED70C2EFCD777
:020030001200BC
:0C003200100E0D6E0D2EFED70000120007
:08003E000AAE029E000E120042
:100046000B840BAE2EEF00F0010E036E026A016AFE
:0A005600006A0A360232FF0E1200A3
:0E006000026A016A006A086A036A000E120052
:10006E000B820BAE41EF00F0036802680168006876
:08007E000A360232FF0E1200E7
:1000860079BE02D08C9E01D08C8E79BC02D08C9C1D
:1000960001D08C8C79BA02D08C9A01D08C8A79B82E
:1000A60002D08C9801D08C8834B002D08D8401D0D7
:1000B6008D948D82B0DF8D9279B602D08C9E01D060
:1000C6008C8E79B402D08C9C01D08C8C79B202D003
:1000D6008C9A01D08C8A79B002D08C9801D08C8809
:1000E60034B002D08D8401D08D948D8294DF8D92B0
:0C00F60034A002D092DF01D099DF12008C
:100102000C6A0E6A0250D8A49AEF00F001C002F005
:1001120000C001F0006A0E860250D8A49AEF00F0E7
:1001220001C002F0016A0E960E880250D8B4ACEFFC
:1001320000F00E50035ED8A4D8A0B1EF00F0D89022
:1001420002BEB6EF00F0003601360236032EA1EFF2
:1001520000F0B1EF00F0010E0C6E81DFB9EF00F09C
:10016200020E0C6E6FDFB9EF00F0040E0C6E66DF4C
:02017200120079
:10017400086A096A000E076203643FEF01F0025047
:1001840006180A6E075003267E0ED8A0D0EF00F0A2
:10019400035ED8B043EF01F0D4EF00F0035ED8A0C3
:1001A40047EF01F0028E068E02C00EF001C00BF084
:1001B40000C00DF000500402F4CF0CF00150050211
:1001C400F4CF00F0F3CF08F00402F3500C26F450FF
:1001D4000822000E00220D500502F3500C26F450A4
:1001E4000822000E002202500402F3500826F450A4
:1001F400002202500502016A000E0122F35000267B
:10020400F45001220D500602F3500826F450002247
:10021400026A000E012202220B500602F35000264D
:10022400F4500122000E02220E500602F350012661
:10023400F450022202BE27EF01F0083600360136E0
:1002440002360306D8B447EF01F03AEF01F0D88044
:10025400800E08640030000E002201220222D8A081
:100264003AEF01F0023201320032034A43EF01F067
:100274000AAE029E000E49EF01F0010EEFDE49EFD7
:1002840001F0020EF2DE49EF01F0040EDADE120094
:0E029400ACB202D00000FCD775C0ADFF120066
:0A02A200070E0D6E0D2EFED71200A0
:0C02AC00349075C079F0E9DE3480120057
:1002B80075C004F076C005F004C002F005C003F074
:1002C800044A052A77C000F078C001F0774A782AF6
:1002D80000C0E9FF01C0EAFF02C0E1FF03C0E2FF7E
:1002E800EECFE6FF02C0E9FF03C0EAFFEE5201E0ED
:0C02F800E3D775C000F076C001F01200E2
:100304000A6A0350D8A40A800750D8A40A820A5063
:10031400D8B4E5EF01F0030AD8B49EEF01F00AB0B7
:1003240099EF01F006AEE3EF01F0E1EF01F002AE68
:10033400E1EF01F0E3EF01F00250800B0A6E029E40
:100344000650800B069E0A18D8B4AFEF01F00A508D
:10035400D8B4E1EF01F0E3EF01F00750035CD8B447
:10036400B9EF01F0D8A0D5EF01F0DBEF01F00650B2
:10037400025CD8B4C3EF01F0D8A0D5EF01F0DBEFF5
:1003840001F00550015CD8B4CDEF01F0D8A0D5EF51
:1003940001F0DBEF01F00450005CD8B4E5EF01F0AC
:1003A400D8B0DBEF01F00A52D8B4E3EF01F0E1EF8B
:1003B40001F00A52D8B4E1EF01F0E3EF01F0D88084
:0E03C4001200D8901200D880D88412001200C7
:1003D2000D6A086A0050D8B4000C04180A6E0ABEEE
:1003E2000D1E0B6A04AE02D0041E042A00AE02D017
:1003F200001E002A005004100A6E0ABE1FD00450CC
:10040200085E003600340836045008260036060E10
:100412000C6E00340836045000B0085E00A00826B6
:1004220000360C2EF6D700A008260BB015D00DAE64
:10043200000C001E002A081E082A000C04AE09D077
:1004420000BE04D00050086E006AF1D7006A002A8C
:10045200000C001E0B2AD3D7082A0450085CD8A42B
:0E046200E6D7086A002A00AEE2D7FF0C1200AF
:1004700082A40FD082A00DD0020E826E820E0C6E6E
:10048000DD0E0D6E0D2EFED70C2EFCD700000000E9
:1004900032D082A40FD082A60DD0100E826E820EB2
:1004A0000C6EDD0E0D6E0D2EFED70C2EFCD700004F
:1004B000000021D082B40FD082A20DD0010E826E36
:1004C000820E0C6EDD0E0D6E0D2EFED70C2EFCD79F
:1004D0000000000010D082B40ED082A80CD0080E0C
:1004E000826E820E0C6EDD0E0D6E0D2EFED70C2E62
:0804F000FCD70000000012001F
:1004F800940E206E020E216E750E226E000E236E73
:10050800FF0E286EFF0E296E000E2A6E000E2B6E4F
:10051800FF0E306EFF0E316E000E326E000E336E1F
:10052800FF0E2C6EFF0E2D6E000E2E6E000E2F6E1F
:10053800AC8A900EAB6E948E949C9EAA03D0AECFDC
:0605480000F0FBD71200D9
:10054E000FD0800E636E19D0C00E636E16D0940E4F
:10055E00636E13D0D40E636E10D0800E636E0DD00A
:10056E006350010AEEE06350020AEEE06350030AA4
:10057E00EEE06350040AEEE0F0D76404006E6350C0
:10058E00002600C063F000C079F076DD3490676A13
:10059E0067506524E96E000E6620EA6EEE520BE09F
:1005AE0067506524E96E000E6620EA6EEECF75F098
:0A05BE0076DE672AEDD734801200C4
:1005C800969296949598959A959C959E8D928D94D1
:1005D8008C9E8C9C8C9A8C981FDD1EDD1DDD8C8A70
:1005E8008C888D8217DD8D9217DD8D8213DD8D92BB
:1005F80013DD8D820FDD8D920FDD8C988D820ADDE3
:100608008D920ADD8D8206DD8D928C9A8C8E8D827C
:1006180001DD8D9201DD8C9E8C888D82FBDC8D92B4
:100628008C988D82F7DC8D92F7DC8D82F3DC8D92CD
:100638008C888D82EFDC8D92EFDC8C988D82EADCE1
:100648008D928C8E8C8C8C8A8C888D82E3DC8D923A
:06065800E3DC3480120017
:10065E00666A63C0E9FF64C0EAFFEECF65F06550DD
:10066E00000A0DE065C075F00EDE662A6650632442
:10067E00E96E000E6420EA6EEECF65F0F0D7120040
:10068E00C26AC00EC2121F1C006E0050C116C18C71
:10069E00C18E63C000F00036009000360090003628
:1006AE0000900050C212C280F5DDC284C2A401D0F7
:1006BE00FDD7C4CF01F0006AC3500012000E011224
:0406CE00C2901200C4
:1006D2000900F5CFE6FF0006FBE10106F9E1120091
:1006E200706A716A726A736A746A63C06CF064C019
:1006F2006DF065C06EF066C06FF06F50FF0A08E1E2
:100702006E50FF0A05E16D50FF0A02E16C50FF0ACC
:100712000CE167C075F068C076F0150E776E000EBA
:10072200786EC9DD030E006E56D2010E6A6E6EAE91
:100732000FD0800E6E18006E00C06EF06A2A712A09
:1007420067C0E1FF68C0E2FF2D0EE66E674A682AC5
:10075200000E006E6F1808E100506E1805E100509F
:100762006D1802E16C50000A0BE167C075F068C0B9
:1007720076F0190E776E000E786E9DDD006A2BD230
:100782006F50FF0A08E16E50000A05E16D50000A41
:1007920002E16C50000A0CE167C075F068C076F0A7
:1007A2001B0E776E000E786E86DD6AC000F013D2E3
:1007B200000E046E000E056E000E066E7F0E076EB2
:1007C2006CC000F06DC001F06EC002F06FC003F0AB
:1007D20098DD010ED8B0000E006E00521BE06CC016
:1007E20000F06DC001F06EC002F06FC003F0000EA9
:1007F200046E000E056E200E066E820E076EB9DCC8
:1008020000C06CF001C06DF002C06EF003C06FF06A
:100812007406CED7000E046E000E056E200E066E14
:10082200820E076E6CC000F06DC001F06EC002F067
:100832006FC003F066DD000ED8B0010E006E0052EC
:100842001BE06CC000F06DC001F06EC002F06FC022
:1008520003F0CD0E046ECC0E056E4C0E066E7B0EB2
:10086200076E87DC00C06CF001C06DF002C06EF054
:1008720003C06FF0742ACED7FF0E6C14086EFF0E01
:100882006D14096E7F0E6E140A6E000E6F140B6EDD
:1008920008C004F009C005F00AC006F00BC007F05A
:1008A20004360490053606360736000E6C14006EC8
:1008B200000E6D14016E000E6E14026EFF0E6F14A8
:1008C200036E00C06CF001C06DF002C06EF003C098
:1008D2006FF004506C10006E05506D10016E0650E2
:1008E2006E10026E07506F10036E00C06CF001C0F4
:1008F2006DF002C06EF003C06FF07F0E6F5C006E91
:1009020000C06BF0010E6F6E00C004F06CC000F00E
:100912006DC001F06EC002F06FC003F0045007E03A
:1009220000360090013602360336FF0FF8D700C0BA
:100932006CF001C06DF002C06EF003C06FF067C0D2
:10094200E1FF68C0E2FF6F50300FE66E674A682A27
:10095200712A800E7418006E800E010A005C08E392
:10096200800E060A006E800E7418005C01E30BD044
:1009720067C0E1FF68C0E2FF2E0EE66E674A682A92
:10098200010E706E712A060E6B6E6B50000A58E0F3
:100992006F6A6CC000F06DC001F06EC002F06FC0F3
:1009A20003F000360090013602360336003600901E
:1009B2000136023603366C5000266D5001226E500D
:1009C20002226F50032200C06CF001C06DF002C021
:1009D2006EF003C06FF06CC000F06DC001F06EC02D
:1009E20002F06FC003F00036009001360236033683
:1009F20000C06CF001C06DF002C06EF003C06FF079
:100A020067C0E1FF68C0E2FF6F50300FE66E674AD1
:100A1200682A712A7050000A11E174067450000AA3
:100A22000DE1010E736E67C0E1FF68C0E2FF2E0E9A
:100A3200E66E674A682A010E706E712A6B06A5D7A8
:100A42007350010AD8B47106FF0E6724E96EFF0ED7
:100A52006820EA6EEE502E0A05E1010E675E000E76
:100A6200685A7106800E000A006E800E7418005CCF
:100A720002E2010E726E800E7418006E800E000A81
:100A8200005C02E2020E726E74C06BF0800E090A04
:100A9200006E800E7418005C02E3722A02D0020E0D
:100AA200722672507124016E026A000E0222800EBA
:100AB2000218006E800E005C02E16950015C0AE2DD
:100AC20067C0E1FF68C0E2FF300EE66E674A682A3F
:100AD200712AE7D77450000A41E067C0E1FF68C09D
:100AE200E2FF650EE66E674A682A800E7418006E91
:100AF200800E000A005C0BE267C0E1FF68C0E2FF03
:100B02002D0EE66E674A682A74500008746E74C02F
:100B12006BF0800E090A006E800E7418005C0EE203
:100B22000A0E046E6BC000F053DC67C0E1FF68C0C0
:100B3200E2FF0050300FE66E674A682A0A0E046E22
:100B42006BC000F045DC08C000F067C0E1FF68C080
:100B5200E2FF0050300FE66E674A682A7250712435
:100B6200006E00C071F06950005C016E01C06BF054
:100B7200800E000A006E800E0118005C0EE2800EEC
:100B8200000A006E800E6B18005C06E26B06010E16
:100B9200675E000E685AF3D718D0800E6B18006E8D
:100BA200800E000A005C11E2800E6B18006E800E4F
:100BB200000A005C0AE26B2A67C0E1FF68C0E2FF3C
:100BC200300EE66E674A682AEFD767C0E1FF68C059
:080BD200E2FFE66A006A12006E
:100BDA000050086E0150006E016A026A036A0B6ACD
:100BEA000C6A960E036E0A6A00C001F008C000F093
:0A0BFA00086A026A81EC00F01200A4
:100C0400E1DC010E796E43EC00F00C0E796E43ECDE
:100C140000F0010E636E010E646E540E356E650EA7
:100C2400366E6D0E376E700E386E3A0E396E3A6A45
:0C0C3400350E656E000E666E88DC120046
:0A0C4000956AFF0E926E966A12008C
:0C0C4A00030EC16E040E946E9282120024
:100C560035C063F019DDBEDF000E046E000E056EB2
:100C66007A0E066E7D0E076EBAEC00F000C037F005
:100C760001C038F002C039F003C03AF000C063F09A
:100C860001C064F002C065F003C066F03B0E676EFB
:100C9600000E686E040E696E21DD010E636E060E8F
:100CA600646E3B0E656E000E666E4EDC010E636E64
:100CB6000C0E646E540E406E650E416E610E426EF1
:100CC6006D0E436E330E446E456A400E656E000E21
:100CD600666E3ADC37C000F038C001F039C002F069
:060CE6003AC003F0120009
:100CEC0035C004F036C005F037C006F038C007F048
:100CFC00000E006E000E016E0C0E026E840E036E62
:100D0C0082EC01F0010ED8B0000E006E005219E01A
:100D1C00020E636E010E646E140EF66E0F0EF76EFD
:100D2C00000EF86E390EE16E000EE26E120E006EC1
:100D3C00010E016EC8DC390E656E000E666E01DCAC
:100D4C004BD035C004F036C005F037C006F038C0C3
:100D5C0007F0000E006E000E016E700E026E830E18
:100D6C00036E82EC01F0000ED8B0010E006E005242
:100D7C001AE0020E636E010E646E260EF66E0F0EF6
:100D8C00F76E000EF86E4B0EE16E000EE26E100E5A
:100D9C00006E010E016E97DC4B0E656E000E666EDA
:100DAC00A7EC02F019D0020E636E010E646E520EA7
:100DBC005B6E650E5C6E610E5D6E630E5E6E680E34
:100DCC005F6E650E606E640E616E626A5B0E656EC0
:0A0DDC00000E666EA7EC02F0120094
:100DE600190EAF6EAC847CEC02F0820E0C6EDD0E3A
:100DF6000D6E0D2EFED70C2EFCD700000000540EF3
:100E0600356E650E366E6D0E376E700E386E650E6B
:100E1600396E720E3A6E610E3B6E740E3C6E750E36
:100E26003D6E720E3E6E650E3F6E3A0E406E416A24
:100E3600350E636E000E646E0FDC0D0E756E4AEC99
:0C0E460001F00A0E756E4AEC01F012007B
:100E520035C004F036C005F037C006F038C007F0E0
:100E6200000E006E000E016E0C0E026E840E036EFA
:100E720082EC01F0010ED8B0000E006E005204E0C8
:100E8200828638EC02F01DD035C004F036C005F081
:100E920037C006F038C007F0000E006E000E016E7B
:100EA200700E026E830E036E82EC01F0000ED8B05B
:100EB200010E006E005204E0828038EC02F001D094
:040EC200826A12002E
:100EC600A5EC07F0BFDEB9DE9ADE8ADF020E356ECC
:100ED600000E366EBDDE00C024F001C025F002C053
:100EE60026F003C027F000C035F001C036F002C07E
:100EF60037F003C038F0F7DE24C035F025C036F0F1
:0E0F060026C037F027C038F0A1DFE0D7FFD7B4
:100F4A0010EE15F00B0E006E010E016E3E0EF66EDF
:0E0F5A000F0EF76E000EF86E69EC03F0120039
:100F140044656372656173696E672046414E4F464E
:020F2400460085
:100F2600496E6372656173696E6746414E4F4E0046
:080F3600526561636865640007
:040F3E004E614E00B2
:020F420030007D
:040F4400494E4600CC
:010F48000F99
:020000040030CA
:0D000100220F0EFF0181FF0FC00FE00F4026
:00000001FF
