:10000000BBEF06F00000000000EF00F00000000071
:0A0010000000000000000000F3D71C
:10001C000F0E0C6E470E0D6E0D2EFED70C2EFCD750
:06002C00000000001200BC
:06003200000000001200B6
:0A003800210E0D6E0D2EFED71200F2
:0E004200026A016A006A086A036A000E120070
:100050000B840BAE33EF00F0010E036E026A016AEF
:0A006000006A0A360232FF0E120099
:08006A000AAE029E000E120016
:100072007CBE02D08C9E01D08C8E7CBC02D08C9C2B
:1000820001D08C8C7CBA02D08C9A01D08C8A7CB83C
:1000920002D08C9801D08C885AB002D08D8401D0C5
:1000A2008D948D82C5DF8D927CB602D08C9E01D05C
:1000B2008C8E7CB402D08C9C01D08C8C7CB202D011
:1000C2008C9A01D08C8A7CB002D08C9801D08C881A
:1000D2005AB002D08D8401D08D948D82A9DF8D9289
:0C00E2005AA002D09ADF01D0A6DF120065
:1000EE000B820BAE81EF00F00368026801680068B6
:0800FE000A360232FF0E120067
:0C0106005A9078C07CF0B2DF5A801200E2
:0C0112000E0E0D6E0D2EFED70000120028
:10011E000C6A0E6A0250D8A4A8EF00F001C002F0DB
:10012E0000C001F0006A0E860250D8A4A8EF00F0BD
:10013E0001C002F0016A0E960E880250D8B4BAEFD2
:10014E0000F00E50035ED8A4D8A0BFEF00F0D890F8
:10015E0002BEC4EF00F0003601360236032EAFEFBA
:10016E0000F0BFEF00F0010E0C6E64DFC7EF00F081
:10017E00020E0C6E66DFC7EF00F0040E0C6E6EDF23
:02018E0012005D
:10019000086A096A000E076203644DEF01F002501D
:1001A00006180A6E075003267E0ED8A0DEEF00F078
:1001B000035ED8B051EF01F0E2EF00F0035ED8A08B
:1001C00055EF01F0028E068E02C00EF001C00BF05A
:1001D00000C00DF000500402F4CF0CF001500502F5
:1001E000F4CF00F0F3CF08F00402F3500C26F450E3
:1001F0000822000E00220D500502F3500C26F45088
:100200000822000E002202500402F3500826F45087
:10021000002202500502016A000E0122F35000265E
:10022000F45001220D500602F3500826F45000222B
:10023000026A000E012202220B500602F350002631
:10024000F4500122000E02220E500602F350012645
:10025000F450022202BE35EF01F0083600360136B6
:1002600002360306D8B455EF01F048EF01F0D8800C
:10027000800E08640030000E002201220222D8A065
:1002800048EF01F0023201320032034A51EF01F02F
:100290000AAE029E000E57EF01F0010ED2DE57EFBC
:1002A00001F0020E24DF57EF01F0040ED1DE120040
:1002B00078C004F079C005F004C002F005C003F076
:1002C000044A052A7AC000F07BC001F07A4A7B2AF2
:1002D00000C0E9FF01C0EAFF02C0E1FF03C0E2FF86
:1002E000EECFE6FF02C0E9FF03C0EAFFEE5201E0F5
:0C02F000E3D778C000F079C001F01200E4
:1002FC000A6A0350D8A40A800750D8A40A820A506C
:10030C00D8B4E1EF01F0030AD8B49AEF01F00AB0C7
:10031C0095EF01F006AEDFEF01F0DDEF01F002AE7C
:10032C00DDEF01F0DFEF01F00250800B0A6E029E50
:10033C000650800B069E0A18D8B4ABEF01F00A5099
:10034C00D8B4DDEF01F0DFEF01F00750035CD8B457
:10035C00B5EF01F0D8A0D1EF01F0D7EF01F00650C6
:10036C00025CD8B4BFEF01F0D8A0D1EF01F0D7EF09
:10037C0001F00550015CD8B4C9EF01F0D8A0D1EF61
:10038C0001F0D7EF01F00450005CD8B4E1EF01F0BC
:10039C00D8B0D7EF01F00A52D8B4DFEF01F0DDEF9F
:1003AC0001F00A52D8B4DDEF01F0DFEF01F0D88094
:0E03BC001200D8901200D880D88412001200CF
:1003CA000D6A086A0050D8B4000C04180A6E0ABEF6
:1003DA000D1E0B6A04AE02D0041E042A00AE02D01F
:1003EA00001E002A005004100A6E0ABE1FD00450D4
:1003FA00085E003600340836045008260036060E19
:10040A000C6E00340836045000B0085E00A00826BE
:10041A0000360C2EF6D700A008260BB015D00DAE6C
:10042A00000C001E002A081E082A000C04AE09D07F
:10043A0000BE04D00050086E006AF1D7006A002A94
:10044A00000C001E0B2AD3D7082A0450085CD8A433
:0E045A00E6D7086A002A00AEE2D7FF0C1200B7
:10046800969296949598959A959C959E8D928D9432
:100478008C9E8C9C8C9A8C98CDDDCCDDCBDD8C8AC7
:100488008C888D82D2DD8D92C5DD8D82CEDD8D92F8
:10049800C1DD8D82CADD8D92BDDD8C988D82C5DD72
:1004A8008D92B8DD8D82C1DD8D928C9A8C8E8D8275
:1004B800BCDD8D92AFDD8C9E8C888D82B6DD8D92F1
:1004C8008C988D82B2DD8D92A5DD8D82AEDD8D9208
:1004D8008C888D82AADD8D929DDD8C988D82A5DD1C
:1004E8008D928C8E8C8C8C8A8C888D829EDD8D92E0
:0604F80091DD5A801200A4
:1004FE000FD0800E666E19D0C00E666E16D0940E9A
:10050E00666E13D0D40E666E10D0800E666E0DD051
:10051E006650010AEEE06650020AEEE06650030AEB
:10052E00EEE06650040AEEE0F0D76704006E665007
:10053E00002600C066F000C07CF094DD5A906A6A16
:10054E006A506824E96E000E6920EA6EEE520BE0E6
:10055E006A506824E96E000E6920EA6EEECF78F0DC
:0A056E00CBDD6A2AEDD75A80120097
:10057800736A746A756A766A776A66C06FF067C06C
:1005880070F068C071F069C072F07250FF0A08E13B
:100598007150FF0A05E17050FF0A02E16F50FF0A2F
:1005A8000CE16AC078F06BC079F04D0E7A6E000EDF
:1005B8007B6E7ADE030E006E56D2010E6D6E71AE42
:1005C8000FD0800E7118006E00C071F06D2A742A69
:1005D8006AC0E1FF6BC0E2FF2D0EE66E6A4A6B2A25
:1005E800000E006E721808E10050711805E1005005
:1005F800701802E16F50000A0BE16AC078F06BC016
:1006080079F04B0E7A6E000E7B6E4EDE006A2BD2AE
:100618007250FF0A08E17150000A05E17050000AA3
:1006280002E16F50000A0CE16AC078F06BC079F003
:10063800510E7A6E000E7B6E37DE6DC000F013D25D
:10064800000E046E000E056E000E066E7F0E076E1D
:100658006FC000F070C001F071C002F072C003F00A
:1006680049DE010ED8B0000E006E00521BE06FC0CC
:1006780000F070C001F071C002F072C003F0000E0B
:10068800046E000E056E200E066E820E076E7CDD6F
:1006980000C06FF001C070F002C071F003C072F0CA
:1006A8007706CED7000E046E000E056E200E066E7D
:1006B800820E076E6FC000F070C001F071C002F0CA
:1006C80072C003F017DE000ED8B0010E006E0052A3
:1006D8001BE06FC000F070C001F071C002F072C082
:1006E80003F0CD0E046ECC0E056E4C0E066E7B0E1E
:1006F800076E4ADD00C06FF001C070F002C071F0F3
:1007080003C072F0772ACED7FF0E6F14086EFF0E63
:100718007014096E7F0E71140A6E000E72140B6E3F
:1007280008C004F009C005F00AC006F00BC007F0C5
:1007380004360490053606360736000E6F14006E30
:10074800000E7014016E000E7114026EFF0E72140A
:10075800036E00C06FF001C070F002C071F003C0FA
:1007680072F004506F10006E05507010016E065044
:100778007110026E07507210036E00C06FF001C056
:1007880070F002C071F003C072F07F0E725C006EF0
:1007980000C06EF0010E726E00C004F06FC000F071
:1007A80070C001F071C002F072C003F0045007E09D
:1007B80000360090013602360336FF0FF8D700C026
:1007C8006FF001C070F002C071F003C072F06AC02F
:1007D800E1FF6BC0E2FF7250300FE66E6A4A6B2A87
:1007E800742A800E7718006E800E010A005C08E3F8
:1007F800800E060A006E800E7718005C01E30BD0AD
:100808006AC0E1FF6BC0E2FF2E0EE66E6A4A6B2AF1
:10081800010E736E742A060E6E6E6E50000A58E052
:10082800726A6FC000F070C001F071C002F072C04F
:1008380003F0003600900136023603360036009089
:100848000136023603366F5000267050012271506F
:1008580002227250032200C06FF001C070F002C083
:1008680071F003C072F06FC000F070C001F071C089
:1008780002F072C003F000360090013602360336EB
:1008880000C06FF001C070F002C071F003C072F0D8
:100898006AC0E1FF6BC0E2FF7250300FE66E6A4A31
:1008A8006B2A742A7350000A11E177067750000A00
:1008B8000DE1010E766E6AC0E1FF6BC0E2FF2E0EFD
:1008C800E66E6A4A6B2A010E736E742A6E06A5D705
:1008D8007650010AD8B47406FF0E6A24E96EFF0E3A
:1008E8006B20EA6EEE502E0A05E1010E6A5E000EDC
:1008F8006B5A7406800E000A006E800E7718005C32
:1009080002E2010E756E800E7718006E800E000AE6
:10091800005C02E2020E756E77C06EF0800E090A66
:10092800006E800E7718005C02E3752A02D0020E72
:10093800752675507424016E026A000E0222800E1C
:100948000218006E800E005C02E16C50015C0AE245
:100958006AC0E1FF6BC0E2FF300EE66E6A4A6B2A9E
:10096800742AE7D77750000A41E06AC0E1FF6BC0FC
:10097800E2FF650EE66E6A4A6B2A800E7718006EF3
:10098800800E000A005C0BE26AC0E1FF6BC0E2FF68
:100998002D0EE66E6A4A6B2A77500008776E77C08C
:1009A8006EF0800E090A006E800E7718005C0EE269
:1009B8000A0E046E6EC000F004DD6AC0E1FF6BC071
:1009C800E2FF0050300FE66E6A4A6B2A0A0E046E88
:1009D8006EC000F0F6DC08C000F06AC0E1FF6BC032
:1009E800E2FF0050300FE66E6A4A6B2A7550742495
:1009F800006E00C074F06C50005C016E01C06EF0B7
:100A0800800E000A006E800E0118005C0EE2800E57
:100A1800000A006E800E6E18005C06E26E06010E7B
:100A28006A5E000E6B5AF3D718D0800E6E18006EEF
:100A3800800E000A005C11E2800E6E18006E800EB7
:100A4800000A005C0AE26E2A6AC0E1FF6BC0E2FF9E
:100A5800300EE66E6A4A6B2AEFD76AC0E1FF6BC0B8
:080A6800E2FFE66A006A1200D9
:100A700082A412D082A010D0020E826E020E0B6EE3
:100A8000040E0C6EBA0E0D6E0D2EFED70C2EFCD77A
:100A90000B2EFAD700003BD082A412D082A610D031
:100AA000100E826E020E0B6E040E0C6EBA0E0D6EE0
:100AB0000D2EFED70C2EFCD70B2EFAD7000027D018
:100AC00082B412D082A210D0010E826E020E0B6E82
:100AD000040E0C6EBA0E0D6E0D2EFED70C2EFCD72A
:100AE0000B2EFAD7000013D082B411D082A80FD0F9
:100AF000080E826E020E0B6E040E0C6EBA0E0D6E98
:100B00000D2EFED70C2EFCD70B2EFAD700001200AC
:100B10000050086E0150006E016A026A036A0B6A97
:100B20000C6A960E036E0A6A00C001F008C000F05D
:0A0B3000086A026A8FEC00F0120060
:100B3A00C26AC00EC212551C006E0050C116C18C8A
:100B4A00C18E66C000F00036009000360090003674
:100B5A0000900050C212C28089EC00F0C284C2A484
:100B6A0001D0FDD7C4CF01F0006AC3500012000EB5
:060B7A000112C2901200FE
:100B800073DC010E7C6E39EC00F00C0E7C6E39ECDF
:100B900000F0010E666E010E676E1D0E686E000E8F
:060BA000696EADDC1200DD
:0A0BA600956AFF0E926E966A120027
:0C0BB000030EC16E040E946E92821200BF
:100BBC000900F5CFE6FF0006FBE10106F9E11200A2
:100BCC005BC004F05CC005F05DC006F05EC007F0D1
:100BDC00000E006E000E016E0C0E026E840E036E83
:100BEC007EEC01F0010ED8B0000E006E00520AE04F
:100BFC00020E666E010E676E330E686E000E696E25
:100C0C0078DC2BD05BC004F05CC005F05DC006F056
:100C1C005EC007F0000E006E000E016E700E026ECC
:100C2C00830E036E7EEC01F0000ED8B0010E006E48
:100C3C0000520AE0020E666E010E676E230E686E9D
:100C4C00000E696E56DC09D0020E666E010E676EE0
:0C0C5C00150E686E000E696E4CDC120074
:100C68005BC004F05CC005F05DC006F05EC007F034
:100C7800000E006E000E016E0C0E026E840E036EE6
:100C88007EEC01F0010ED8B0000E006E005203E0B9
:100C98008286EADE1CD05BC004F05CC005F05DC053
:100CA80006F05EC007F0000E006E000E016E700EBA
:100CB800026E830E036E7EEC01F0000ED8B0010EBA
:100CC800006E005203E08280CFDE01D0826A1200FB
:100CD8005BC066F02EDF18DF000E046E000E056E96
:100CE8007A0E066E7D0E076EC8EC00F000C05DF04F
:100CF80001C05EF002C05FF003C060F000C066F0A3
:100D080001C067F002C068F003C069F0610E6A6E46
:100D1800000E6B6E040E6C6E2BDC010E666E060EFA
:100D2800676E610E686E000E696E7FEC02F0010E50
:100D3800666E0C0E676E450E686E000E696E7FEC6F
:100D480002F0020E0B6E040E0C6EBA0E0D6E0D2E16
:100D5800FED70C2EFCD70B2EFAD700005DC000F092
:0E0D68005EC001F05FC002F060C003F0120038
:100D760002EC07F01ADF14DF00DF010E5B6E000ED7
:100D86005C6EA7DF00C056F001C057F002C058F0F5
:100D960003C059F000C05BF001C05CF002C05DF01A
:100DA60003C05EF010DF56C05BF057C05CF058C061
:0C0DB6005DF059C05EF055DFE0D7FFD7BC
:100E040010EE15F0410E006E010E016EC20EF66E6C
:0E0E14000D0EF76E000EF86EDEEC05F012000B
:080DC20052656163686564007D
:060DCA0054656D703A0053
:100DD000496E6372656173696E6746414E4F4E009E
:100DE00044656372656173696E672046414E4F4684
:020DF0004600BB
:060DF2005465616D330041
:020DF8003000C9
:040DFA004E614E00F8
:040DFE00494E460014
:010E02000FE0
:020000040030CA
:0D000100220F0EFF0181FF0FC00FE00F4026
:00000001FF
