:1000000018EF07F00000000000EF00F00000000013
:0A0010000000000000000000F3D71C
:06001C00000000001200CC
:100022000F0E0C6E470E0D6E0D2EFED70C2EFCD74A
:06003200000000001200B6
:0A003800210E0D6E0D2EFED71200F2
:080042000AAE029E000E12003E
:10004A00000186BF02D08C9E01D08C8E86BD02D064
:10005A008C9C01D08C8C86BB02D08C9A01D08C8A65
:10006A0086B902D08C9801D08C8864B002D08D8475
:10007A0001D08D948D82CDDF8D9286B702D08C9E71
:10008A0001D08C8E86B502D08C9C01D08C8C86B324
:10009A0002D08C9A01D08C8A86B102D08C9801D079
:1000AA008C8864B002D08D8401D08D948D82B1DFAA
:0E00BA008D9264A002D0B0DF01D0B9DF120039
:0E00C800026A016A006A086A036A000E1200EA
:1000D6000B840BAE76EF00F0010E036E026A016A26
:0A00E600006A0A360232FF0E120013
:1000F0000B820BAE82EF00F00368026801680068B3
:080100000A360232FF0E120064
:100108000C6A0E6A0250D8A49DEF00F001C002F0FC
:1001180000C001F0006A0E860250D8A49DEF00F0DE
:1001280001C002F0016A0E960E880250D8B4AFEFF3
:1001380000F00E50035ED8A4D8A0B4EF00F0D89019
:1001480002BEB9EF00F0003601360236032EA4EFE6
:1001580000F0B4EF00F0010E0C6EB2DFBCEF00F05F
:10016800020E0C6EB4DFBCEF00F0040E0C6E65DFFF
:02017800120073
:0C017A000E0E0D6E0D2EFED700001200C0
:0C018600649082C086F05EDF648012008E
:100192000D6A086A0050D8B4000C04180A6E0ABE30
:1001A2000D1E0B6A04AE02D0041E042A00AE02D059
:1001B200001E002A005004100A6E0ABE1FD004500E
:1001C200085E003600340836045008260036060E53
:1001D2000C6E00340836045000B0085E00A00826F9
:1001E20000360C2EF6D700A008260BB015D00DAEA7
:1001F200000C001E002A081E082A000C04AE09D0BA
:1002020000BE04D00050086E006AF1D7006A002ACE
:10021200000C001E0B2AD3D7082A0450085CD8A46D
:0E022200E6D7086A002A00AEE2D7FF0C1200F1
:1002300082C004F083C005F004C002F005C003F0E2
:10024000044A052A84C000F085C001F00001844BF7
:10025000852B00C0E9FF01C0EAFF02C0E1FF03C037
:10026000E2FFEECFE6FF02C0E9FF03C0EAFFEE5275
:0E02700001E0E2D782C000F083C001F012006E
:10027E000A6A0350D8A40A800750D8A40A820A50EA
:10028E00D8B4A2EF01F0030AD8B45BEF01F00AB0C4
:10029E0056EF01F006AEA0EF01F09EEF01F002AEB8
:1002AE009EEF01F0A0EF01F00250800B0A6E029E4D
:1002BE000650800B069E0A18D8B46CEF01F00A5057
:1002CE00D8B49EEF01F0A0EF01F00750035CD8B454
:1002DE0076EF01F0D8A092EF01F098EF01F0065002
:1002EE00025CD8B480EF01F0D8A092EF01F098EF45
:1002FE0001F00550015CD8B48AEF01F0D8A092EF5E
:10030E0001F098EF01F00450005CD8B4A2EF01F0B8
:10031E00D8B098EF01F00A52D8B4A0EF01F09EEFDA
:10032E0001F00A52D8B49EEF01F0A0EF01F0D88090
:0E033E001200D8901200D880D884120012004D
:10034C00086A096A000E076203642BEF02F0025080
:10035C0006180A6E075003267E0ED8A0BCEF01F0DB
:10036C00035ED8B02FEF02F0C0EF01F0035ED8A00F
:10037C0033EF02F0028E068E02C00EF001C00BF0BD
:10038C0000C00DF000500402F4CF0CF00150050237
:10039C00F4CF00F0F3CF08F00402F3500C26F45025
:1003AC000822000E00220D500502F3500C26F450CA
:1003BC000822000E002202500402F3500826F450CA
:1003CC00002202500502016A000E0122F3500026A1
:1003DC00F45001220D500602F3500826F45000226E
:1003EC00026A000E012202220B500602F350002674
:1003FC00F4500122000E02220E500602F350012688
:10040C00F450022202BE13EF02F008360036013619
:10041C0002360306D8B433EF02F026EF02F0D88090
:10042C00800E08640030000E002201220222D8A0A7
:10043C0026EF02F0023201320032034A2FEF02F0B3
:10044C000AAE029E000E35EF02F0010E37DE35EFDC
:10045C0002F0020E47DE35EF02F0040E36DE12001B
:10046C007D6A7E6A7F6A0001806B816B70C079F057
:10047C0071C07AF072C07BF073C07CF07C50FF0AC4
:10048C0008E17B50FF0A05E17A50FF0A02E179503E
:10049C00FF0A0CE174C082F075C083F0460E846FC5
:1004AC00000E856FBFDE030E006E56D2010E776E06
:1004BC007BAE0FD0800E7B18006E00C07BF0772ACD
:1004CC007E2A74C0E1FF75C0E2FF2D0EE66E744A01
:1004DC00752A000E006E7C1808E100507B1805E1AF
:1004EC0000507A1802E17950000A0BE174C082F0D6
:1004FC0075C083F04A0E846F000E856F93DE006A20
:10050C002BD27C50FF0A08E17B50000A05E17A509F
:10051C00000A02E17950000A0CE174C082F075C047
:10052C0083F04C0E846F000E856F7CDE77C000F07C
:10053C0013D2000E046E000E056E000E066E7F0EBA
:10054C00076E79C000F07AC001F07BC002F07CC06D
:10055C0003F08FDE010ED8B0000E006E00521BE0CF
:10056C0079C000F07AC001F07BC002F07CC003F0CF
:10057C00000E046E000E056E200E066E820E076EC7
:10058C00DFDE00C079F001C07AF002C07BF003C05E
:10059C007CF08107CED7000E046E000E056E200E87
:1005AC00066E820E076E79C000F07AC001F07BC037
:1005BC0002F07CC003F05DDE000ED8B0010E006EC0
:1005CC0000521BE079C000F07AC001F07BC002F051
:1005DC007CC003F0CD0E046ECC0E056E4C0E066E78
:1005EC007B0E076EADDE00C079F001C07AF002C060
:1005FC007BF003C07CF0812BCED7FF0E7914086EF4
:10060C00FF0E7A14096E7F0E7B140A6E000E7C149A
:10061C000B6E08C004F009C005F00AC006F00BC050
:10062C0007F004360490053606360736000E7914AA
:10063C00006E000E7A14016E000E7B14026EFF0E1B
:10064C007C14036E00C079F001C07AF002C07BF01C
:10065C0003C07CF004507910006E05507A10016EC6
:10066C0006507B10026E07507C10036E00C079F0B0
:10067C0001C07AF002C07BF003C07CF07F0E7C5C82
:10068C00006E00C078F0010E7C6E00C004F079C0E2
:10069C0000F07AC001F07BC002F07CC003F0045083
:1006AC0007E000360090013602360336FF0FF8D70C
:1006BC0000C079F001C07AF002C07BF003C07CF07E
:1006CC0074C0E1FF75C0E2FF7C50300FE66E744AD7
:1006DC00752A7E2A800E8119006E800E010A005C3C
:1006EC0008E3800E060A006E800E8119005C01E39F
:1006FC000BD074C0E1FF75C0E2FF2E0EE66E744A9B
:10070C00752A010E7D6E7E2A060E786E7850000AD0
:10071C0058E07C6A79C000F07AC001F07BC002F02E
:10072C007CC003F0003600900136023603360036EA
:10073C000090013602360336795000267A50012299
:10074C007B5002227C50032200C079F001C07AF069
:10075C0002C07BF003C07CF079C000F07AC001F0DD
:10076C007BC002F07CC003F00036009001360236EC
:10077C00033600C079F001C07AF002C07BF003C0F0
:10078C007CF074C0E1FF75C0E2FF7C50300FE66E68
:10079C00744A752A7E2A7D50000A11E18107815125
:1007AC00000A0DE1010E806F74C0E1FF75C0E2FF1D
:1007BC002E0EE66E744A752A010E7D6E7E2A780620
:1007CC00A5D78051010AD8B47E06FF0E7424E96EB9
:1007DC00FF0E7520EA6EEE502E0A05E1010E745ED6
:1007EC00000E755A7E06800E000A006E800E81196E
:1007FC00005C02E2010E7F6E800E8119006E800E8D
:10080C00000A005C02E2020E7F6E81C078F0800E5E
:10081C00090A006E800E8119005C02E37F2A02D067
:10082C00020E7F267F507E24016E026A000E022289
:10083C00800E0218006E800E005C02E17650015CA6
:10084C000AE274C0E1FF75C0E2FF300EE66E744A36
:10085C00752A7E2AE7D78151000A41E074C0E1FF76
:10086C0075C0E2FF650EE66E744A752A800E81191A
:10087C00006E800E000A005C0BE274C0E1FF75C0D4
:10088C00E2FF2D0EE66E744A752A81510008816FC5
:10089C0081C078F0800E090A006E800E8119005C10
:1008AC000EE20A0E046E78C000F06DDC74C0E1FF3D
:1008BC0075C0E2FF0050300FE66E744A752A0A0EBE
:1008CC00046E78C000F05FDC08C000F074C0E1FF7B
:1008DC0075C0E2FF0050300FE66E744A752A7F50E7
:1008EC007E24006E00C07EF07650005C016E01C06C
:1008FC0078F0800E000A006E800E0118005C0EE28B
:10090C00800E000A006E800E7818005C06E27806F5
:10091C00010E745E000E755AF3D718D0800E78183D
:10092C00006E800E000A005C11E2800E7818006EDA
:10093C00800E000A005C0AE2782A74C0E1FF75C0E0
:10094C00E2FF300EE66E744A752AEFD774C0E1FFF1
:0A095C0075C0E2FFE66A006A1200AF
:10096600969296949598959A959C959E8D928D942F
:100976008C9E8C9C8C9A8C9811EC00F011EC00F0FB
:1009860011EC00F08C8A8C888D820EEC00F08D9232
:1009960011EC00F08D820EEC00F08D9211EC00F05F
:1009A6008D820EEC00F08D9211EC00F08C988D8209
:1009B6000EEC00F08D9211EC00F08D820EEC00F042
:1009C6008D928C9A8C8E8D820EEC00F08D9211ECAD
:1009D60000F08C9E8C888D820EEC00F08D928C98A7
:1009E6008D820EEC00F08D9211EC00F08D820EECF3
:1009F60000F08D928C888D820EEC00F08D9211ECB9
:100A060000F08C988D820EEC00F08D928C8E8C8C82
:100A16008C8A8C888D820EEC00F08D9211EC00F0A1
:040A260064801200D6
:100A2A000FD0800E706E19D0C00E706E16D0940E54
:100A3A00706E13D0D40E706E10D0800E706E0DD002
:100A4A007050010AEEE07050020AEEE07050030A9C
:100A5A00EEE07050040AEEE0F0D77104006E7050B8
:100A6A00002600C070F000C086F025EC00F064900B
:100A7A00746A74507224E96E000E7320EA6EEE52A4
:100A8A000CE074507224E96E000E7320EA6EEECF09
:0E0A9A0082F0C3EC00F0742AECD764801200E6
:0E0AA800ACB202D00000FCD770C0ADFF12004F
:100AB60082A412D082A010D0020E826E020E0B6E9D
:100AC600040E0C6EBA0E0D6E0D2EFED70C2EFCD734
:100AD6000B2EFAD700003BD082A412D082A610D0EB
:100AE600100E826E020E0B6E040E0C6EBA0E0D6E9A
:100AF6000D2EFED70C2EFCD70B2EFAD7000027D0D2
:100B060082B412D082A210D0010E826E020E0B6E3B
:100B1600040E0C6EBA0E0D6E0D2EFED70C2EFCD7E3
:100B26000B2EFAD7000013D082B411D082A80FD0B2
:100B3600080E826E020E0B6E040E0C6EBA0E0D6E51
:100B46000D2EFED70C2EFCD70B2EFAD70000120066
:100B5600C26AC00EC212231C006E0050C116C18CA0
:100B6600C18E70C000F0003600900036009000364E
:100B760000900050C212C280BDEC00F0C284C2A434
:100B860001D0FDD7C4CF01F0006AC3500012000E99
:060B96000112C2901200E2
:100B9C000050086E0150006E016A026A036A0B6A0B
:100BAC000C6A960E036E0A6A00C001F008C000F0D1
:0A0BBC00086A026A84EC00F01200DF
:100BC6000900F5CFE6FF0006FBE10106F9E1120098
:100BD600C7DE010E0001866F25EC00F00C0E866F55
:100BE60025EC00F0010E706E010E716E1D0E726E18
:080BF600000E736E17DF120000
:0A0BFE00956AFF0E926E966A1200CF
:0C0C0800030EC16E040E946E9282120066
:100C140065C004F066C005F067C006F068C007F060
:100C2400000E006E000E016E0C0E026E840E036E3A
:100C34003FEC01F0010ED8B0000E006E00520AE045
:100C4400020E706E010E716E3B0E726E000E736EAC
:100C5400EADE2BD065C004F066C005F067C006F07C
:100C640068C007F0000E006E000E016E700E026E7A
:100C7400830E036E3FEC01F0000ED8B0010E006E3F
:100C840000520AE0020E706E010E716E240E726E36
:100C9400000E736EC8DE09D0020E706E010E716E06
:0C0CA400150E726E000E736EBEDE1200A4
:100CB00065C004F066C005F067C006F068C007F0C4
:100CC000000E006E000E016E0C0E026E840E036E9E
:100CD0003FEC01F0010ED8B0000E006E005203E0B0
:100CE0008286E9DE1CD065C004F066C005F067C0EE
:100CF00006F068C007F0000E006E000E016E700E68
:100D0000026E830E036E3FEC01F0000ED8B0010EB0
:100D1000006E005203E08280CEDE01D0826A1200B3
:100D200065C070F018DF3ADF000E046E000E056E2D
:100D30007A0E066E7D0E076EA6EC01F000C067F01D
:100D400001C068F002C069F003C06AF000C070F032
:100D500001C071F002C072F003C073F06B0E746ECC
:100D6000000E756E040E766E36EC02F0010E706E9B
:100D7000060E716E6B0E726E000E736E56DE020EF4
:100D80000B6E040E0C6EBA0E0D6E0D2EFED70C2ED1
:100D9000FCD70B2EFAD7000067C000F068C001F046
:0A0DA00069C002F06AC003F01200FF
:100DAA00A80E606E0A0E616E700E626E000E636EA1
:100DBA00FF0E546EFF0E556E000E566E000E576EE5
:100DCA00FF0E586EFF0E596E000E5A6E000E5B6EC5
:100DDA00FF0E5C6EFF0E5D6E000E5E6E000E5F6EA5
:100DEA00AC8A900EAB6E948E949C9EAA03D0AECF22
:060DFA0000F0FBD712001F
:100E0000686A65C0E9FF66C0EAFFEECF67F0675029
:100E1000000A0DE067C070F047DE682A685065245C
:100E2000E96E000E6620EA6EEECF67F0F0D7120092
:100E300072EC07F0E9DEE3DECEDE330EAF6EAC849B
:100E4000B4DF020E0B6E040E0C6EBA0E0D6E0D2E7C
:100E5000FED70C2EFCD70B2EFAD700002F0E656E96
:100E6000000E666ECDDF010E656E000E666E58DFF9
:100E700000C050F001C051F002C052F003C053F066
:100E800000C065F001C066F002C067F003C068F002
:100E9000C1DE50C065F051C066F052C067F053C06B
:080EA00068F006DFE0D7FFD780
:100EE40010EE15F03B0E006E010E016EA80EF66EAC
:0E0EF4000E0EF76E000EF86EE3EC05F0120025
:080EA800526561636865640096
:060EB00054656D703A006C
:010EB6000F2C
:0B0EB700496E6372656173696E67002D
:0C0EC20054656D70657261747572650096
:0B0ECE0044656372656173696E670024
:040ED9004E614E0018
:020EDD003000E3
:040EDF00494E460032
:020000040030CA
:0D000100220F0EFF0181FF0FC00FE00F4026
:00000001FF
