:10000000A4EF07F00000000000EF00F00000000087
:0A0010000000000000000000F3D71C
:04001C0000001200CE
:10002000080E0C6E230E0D6E0D2EFED70C2EFCD777
:020030001200BC
:0C003200100E0D6E0D2EFED70000120007
:08003E000AAE029E000E120042
:100046000B840BAE2EEF00F0010E036E026A016AFE
:0A005600006A0A360232FF0E1200A3
:0E006000026A016A006A086A036A000E120052
:10006E000B820BAE41EF00F0036802680168006876
:08007E000A360232FF0E1200E7
:100086007EBE02D08C9E01D08C8E7EBC02D08C9C13
:1000960001D08C8C7EBA02D08C9A01D08C8A7EB824
:1000A60002D08C9801D08C8824B002D08D8401D0E7
:1000B6008D948D82B0DF8D927EB602D08C9E01D05B
:1000C6008C8E7EB402D08C9C01D08C8C7EB202D0F9
:1000D6008C9A01D08C8A7EB002D08C9801D08C8804
:1000E60024B002D08D8401D08D948D8294DF8D92C0
:0C00F60024A002D092DF01D099DF12009C
:100102000C6A0E6A0250D8A49AEF00F001C002F005
:1001120000C001F0006A0E860250D8A49AEF00F0E7
:1001220001C002F0016A0E960E880250D8B4ACEFFC
:1001320000F00E50035ED8A4D8A0B1EF00F0D89022
:1001420002BEB6EF00F0003601360236032EA1EFF2
:1001520000F0B1EF00F0010E0C6E81DFB9EF00F09C
:10016200020E0C6E6FDFB9EF00F0040E0C6E66DF4C
:02017200120079
:10017400086A096A000E076203643FEF01F0025047
:1001840006180A6E075003267E0ED8A0D0EF00F0A2
:10019400035ED8B043EF01F0D4EF00F0035ED8A0C3
:1001A40047EF01F0028E068E02C00EF001C00BF084
:1001B40000C00DF000500402F4CF0CF00150050211
:1001C400F4CF00F0F3CF08F00402F3500C26F450FF
:1001D4000822000E00220D500502F3500C26F450A4
:1001E4000822000E002202500402F3500826F450A4
:1001F400002202500502016A000E0122F35000267B
:10020400F45001220D500602F3500826F450002247
:10021400026A000E012202220B500602F35000264D
:10022400F4500122000E02220E500602F350012661
:10023400F450022202BE27EF01F0083600360136E0
:1002440002360306D8B447EF01F03AEF01F0D88044
:10025400800E08640030000E002201220222D8A081
:100264003AEF01F0023201320032034A43EF01F067
:100274000AAE029E000E49EF01F0010EEFDE49EFD7
:1002840001F0020EF2DE49EF01F0040EDADE120094
:0E029400ACB202D00000FCD77AC0ADFF120061
:0A02A200070E0D6E0D2EFED71200A0
:0C02AC0024907AC07EF0E9DE248012006D
:1002B8007AC004F07BC005F004C002F005C003F06A
:1002C800044A052A7CC000F07DC001F07C4A7D2AE2
:1002D80000C0E9FF01C0EAFF02C0E1FF03C0E2FF7E
:1002E800EECFE6FF02C0E9FF03C0EAFFEE5201E0ED
:0C02F800E3D77AC000F07BC001F01200D8
:100304000A6A0350D8A40A800750D8A40A820A5063
:10031400D8B4E5EF01F0030AD8B49EEF01F00AB0B7
:1003240099EF01F006AEE3EF01F0E1EF01F002AE68
:10033400E1EF01F0E3EF01F00250800B0A6E029E40
:100344000650800B069E0A18D8B4AFEF01F00A508D
:10035400D8B4E1EF01F0E3EF01F00750035CD8B447
:10036400B9EF01F0D8A0D5EF01F0DBEF01F00650B2
:10037400025CD8B4C3EF01F0D8A0D5EF01F0DBEFF5
:1003840001F00550015CD8B4CDEF01F0D8A0D5EF51
:1003940001F0DBEF01F00450005CD8B4E5EF01F0AC
:1003A400D8B0DBEF01F00A52D8B4E3EF01F0E1EF8B
:1003B40001F00A52D8B4E1EF01F0E3EF01F0D88084
:0E03C4001200D8901200D880D88412001200C7
:1003D2000D6A086A0050D8B4000C04180A6E0ABEEE
:1003E2000D1E0B6A04AE02D0041E042A00AE02D017
:1003F200001E002A005004100A6E0ABE1FD00450CC
:10040200085E003600340836045008260036060E10
:100412000C6E00340836045000B0085E00A00826B6
:1004220000360C2EF6D700A008260BB015D00DAE64
:10043200000C001E002A081E082A000C04AE09D077
:1004420000BE04D00050086E006AF1D7006A002A8C
:10045200000C001E0B2AD3D7082A0450085CD8A42B
:0E046200E6D7086A002A00AEE2D7FF0C1200AF
:1004700082A40FD082A00DD0020E826E820E0C6E6E
:10048000DD0E0D6E0D2EFED70C2EFCD700000000E9
:1004900032D082A40FD082A60DD0100E826E820EB2
:1004A0000C6EDD0E0D6E0D2EFED70C2EFCD700004F
:1004B000000021D082B40FD082A20DD0010E826E36
:1004C000820E0C6EDD0E0D6E0D2EFED70C2EFCD79F
:1004D0000000000010D082B40ED082A80CD0080E0C
:1004E000826E820E0C6EDD0E0D6E0D2EFED70C2E62
:0804F000FCD70000000012001F
:1004F8006B6A68C0E9FF69C0EAFFEECF6AF06A502C
:10050800000A0DE06AC07AF0C1DE6B2A6B506824DD
:10051800E96E000E6920EA6EEECF6AF0F0D712009D
:10052800940E206E020E216E7A0E226E000E236E3D
:10053800FF0E256EFF0E266E000E276E000E286E2B
:10054800FF0E2D6EFF0E2E6E000E2F6E000E306EFB
:10055800FF0E296EFF0E2A6E000E2B6E000E2C6EFB
:10056800AC8A900EAB6E948E949C9EAA03D0AECFAC
:0605780000F0FBD71200A9
:10057E00969296949598959A959C959E8D928D941B
:10058E008C9E8C9C8C9A8C9844DD43DD42DD8C8A4B
:10059E008C888D823CDD8D923CDD8D8238DD8D9296
:1005AE0038DD8D8234DD8D9234DD8C988D822FDD99
:1005BE008D922FDD8D822BDD8D928C9A8C8E8D827D
:1005CE0026DD8D9226DD8C9E8C888D8220DD8D928F
:1005DE008C988D821CDD8D921CDD8D8218DD8D92A6
:1005EE008C888D8214DD8D9214DD8C988D820FDDBA
:1005FE008D928C8E8C8C8C8A8C888D8208DD8D925F
:06060E0008DD248012004B
:100614000FD0800E686E19D0C00E686E16D0940E7E
:10062400686E13D0D40E686E10D0800E686E0DD034
:100634006850010AEEE06850020AEEE06850030ACE
:10064400EEE06850040AEEE0F0D76904006E6850EA
:10065400002600C068F000C07EF013DD24906C6AB0
:100664006C506A24E96E000E6B20EA6EEE520BE0C9
:100674006C506A24E96E000E6B20EA6EEECF7AF0BD
:0A06840013DE6C2AEDD7248012006B
:10068E00C26AC00EC2121F1C006E0050C116C18C71
:10069E00C18E68C000F00036009000360090003623
:1006AE0000900050C212C280F5DDC284C2A401D0F7
:1006BE00FDD7C4CF01F0006AC3500012000E011224
:0406CE00C2901200C4
:1006D2000900F5CFE6FF0006FBE10106F9E1120091
:1006E200756A766A776A786A796A68C071F069C0F1
:1006F20072F06AC073F06BC074F07450FF0A08E1C4
:100702007350FF0A05E17250FF0A02E17150FF0ABD
:100712000CE16CC07AF06DC07BF0150E7C6E000EA1
:100722007D6EC9DD030E006E56D2010E6F6E73AE82
:100732000FD0800E7318006E00C073F06F2A762AF5
:100742006CC0E1FF6DC0E2FF2D0EE66E6C4A6D2AB1
:10075200000E006E741808E10050731805E1005095
:10076200721802E17150000A0BE16CC07AF06DC0A0
:100772007BF0190E7C6E000E7D6E9DDD006A2BD221
:100782007450FF0A08E17350000A05E17250000A32
:1007920002E17150000A0CE16CC07AF06DC07BF08E
:1007A2001B0E7C6E000E7D6E86DD6FC000F013D2D4
:1007B200000E046E000E056E000E066E7F0E076EB2
:1007C20071C000F072C001F073C002F074C003F097
:1007D20098DD010ED8B0000E006E00521BE071C011
:1007E20000F072C001F073C002F074C003F0000E9A
:1007F200046E000E056E200E066E820E076EB9DCC8
:1008020000C071F001C072F002C073F003C074F056
:100812007906CED7000E046E000E056E200E066E0F
:10082200820E076E71C000F072C001F073C002F058
:1008320074C003F066DD000ED8B0010E006E0052E7
:100842001BE071C000F072C001F073C002F074C00E
:1008520003F0CD0E046ECC0E056E4C0E066E7B0EB2
:10086200076E87DC00C071F001C072F002C073F045
:1008720003C074F0792ACED7FF0E7114086EFF0EF2
:100882007214096E7F0E73140A6E000E74140B6ECE
:1008920008C004F009C005F00AC006F00BC007F05A
:1008A20004360490053606360736000E7114006EC3
:1008B200000E7214016E000E7314026EFF0E741499
:1008C200036E00C071F001C072F002C073F003C089
:1008D20074F004507110006E05507210016E0650D3
:1008E2007310026E07507410036E00C071F001C0E5
:1008F20072F002C073F003C074F07F0E745C006E7D
:1009020000C070F0010E746E00C004F071C000F0FF
:1009120072C001F073C002F074C003F0045007E02B
:1009220000360090013602360336FF0FF8D700C0BA
:1009320071F001C072F002C073F003C074F06CC0B9
:10094200E1FF6DC0E2FF7450300FE66E6C4A6D2A13
:10095200762A800E7918006E800E010A005C08E388
:10096200800E060A006E800E7918005C01E30BD03F
:100972006CC0E1FF6DC0E2FF2E0EE66E6C4A6D2A7E
:10098200010E756E762A060E706E7050000A58E0DF
:10099200746A71C000F072C001F073C002F074C0DA
:1009A20003F000360090013602360336003600901E
:1009B20001360236033671500026725001227350FE
:1009C20002227450032200C071F001C072F002C012
:1009D20073F003C074F071C000F072C001F073C014
:1009E20002F074C003F0003600900136023603367E
:1009F20000C071F001C072F002C073F003C074F065
:100A02006CC0E1FF6DC0E2FF7450300FE66E6C4ABD
:100A12006D2A762A7550000A11E179067950000A8A
:100A22000DE1010E786E6CC0E1FF6DC0E2FF2E0E8B
:100A3200E66E6C4A6D2A010E756E762A7006A5D78F
:100A42007850010AD8B47606FF0E6C24E96EFF0EC8
:100A52006D20EA6EEE502E0A05E1010E6C5E000E6C
:100A62006D5A7606800E000A006E800E7918005CC0
:100A720002E2010E776E800E7918006E800E000A77
:100A8200005C02E2020E776E79C070F0800E090AF5
:100A9200006E800E7918005C02E3772A02D0020E03
:100AA200772677507624016E026A000E0222800EAB
:100AB2000218006E800E005C02E16E50015C0AE2D8
:100AC2006CC0E1FF6DC0E2FF300EE66E6C4A6D2A2B
:100AD200762AE7D77950000A41E06CC0E1FF6DC089
:100AE200E2FF650EE66E6C4A6D2A800E7918006E82
:100AF200800E000A005C0BE26CC0E1FF6DC0E2FFF9
:100B02002D0EE66E6C4A6D2A79500008796E79C016
:100B120070F0800E090A006E800E7918005C0EE2F9
:100B22000A0E046E70C000F053DC6CC0E1FF6DC0B1
:100B3200E2FF0050300FE66E6C4A6D2A0A0E046E18
:100B420070C000F045DC08C000F06CC0E1FF6DC071
:100B5200E2FF0050300FE66E6C4A6D2A7750762421
:100B6200006E00C076F06E50005C016E01C070F045
:100B7200800E000A006E800E0118005C0EE2800EEC
:100B8200000A006E800E7018005C06E27006010E0C
:100B92006C5E000E6D5AF3D718D0800E7018006E7E
:100BA200800E000A005C11E2800E7018006E800E4A
:100BB200000A005C0AE2702A6CC0E1FF6DC0E2FF2D
:100BC200300EE66E6C4A6D2AEFD76CC0E1FF6DC045
:080BD200E2FFE66A006A12006E
:100BDA000050086E0150006E016A026A036A0B6ACD
:100BEA000C6A960E036E0A6A00C001F008C000F093
:0A0BFA00086A026A81EC00F01200A4
:100C0400828682A61CD0980EF66E0F0EF76E000E2A
:100C1400F86E350EE16E000EE26E1A0E006E010ED5
:100C2400016E55DD350E686E000E696E63DC0D0EC7
:100C34007A6E4AEC01F00A0E7A6E4AEC01F0829662
:100C440082A61CD0B20EF66E0F0EF76E000EF86E72
:100C54004F0EE16E000EE26E190E006E010E016E73
:100C640036DD4F0E686E000E696E44DC0D0E7A6E32
:0E0C74004AEC01F00A0E7A6E4AEC01F0120012
:0C0C8200030EC16E040E946E92821200EC
:100C8E0077DC010E7E6E43EC00F00C0E7E6E43ECB4
:100C9E0000F0010E686E010E696E540E356E650E13
:100CAE00366E6D0E376E700E386E3A0E396E3A6ABB
:0C0CBE00350E6A6E000E6B6EA6DC120094
:0A0CCA00956AFF0E926E966A120002
:100CD400190EAF6EAC8426DC820E0C6EDD0E0D6E2A
:100CE4000D2EFED70C2EFCD700000000540E356EDE
:100CF400650E366E6D0E376E700E386E650E396E7B
:100D0400720E3A6E610E3B6E740E3C6E750E3D6E45
:100D1400720E3E6E650E3F6E3A0E406E416A350E9F
:100D2400686E000E696E7CEC02F00D0E7A6E4AEC71
:0C0D340001F00A0E7A6E4AEC01F0120089
:100D400035C068F0A4DC49DF000E046E000E056EAD
:100D50007A0E066E7D0E076EBAEC00F000C037F01A
:100D600001C038F002C039F003C03AF000C068F0AA
:100D700001C069F002C06AF003C06BF03B0E6C6EFC
:100D8000000E6D6E040E6E6EACDC010E686E060E0B
:100D9000696E3B0E6A6E000E6B6E3CDC010E686E77
:100DA0000C0E696E540E406E650E416E610E426E01
:100DB0006D0E436E330E446E456A400E6A6E000E31
:100DC0006B6E28DC37C000F038C001F039C002F08B
:060DD0003AC003F012001E
:100DD60035C004F036C005F037C006F038C007F05D
:100DE600000E006E000E016E0C0E026E840E036E77
:100DF60082EC01F0010ED8B0000E006E005204E045
:100E0600828638EC02F01DD035C004F036C005F0FD
:100E160037C006F038C007F0000E006E000E016EF7
:100E2600700E026E830E036E82EC01F0000ED8B0D7
:100E3600010E006E005204E0828038EC02F001D010
:040E4600826A1200AA
:100E4A0035C004F036C005F037C006F038C007F0E8
:100E5A00000E006E000E016E0C0E026E840E036E02
:100E6A0082EC01F0010ED8B0000E006E00521AE0BA
:100E7A00020E686E010E696ECB0EF66E0F0EF76EDD
:100E8A00000EF86E390EE16E000EE26E120E006E62
:100E9A00010E016E19DC390E6A6E000E6B6E0AECD9
:100EAA0003F04CD035C004F036C005F037C006F068
:100EBA0038C007F0000E006E000E016E700E026E52
:100ECA00830E036E82EC01F0000ED8B0010E006EA4
:100EDA0000521BE0020E686E010E696EDD0EF66EA0
:100EEA000F0EF76E000EF86E4B0EE16E000EE26EFC
:100EFA00100E006E010E016E69EC03F04B0E6A6E65
:100F0A00000E6B6E0AEC03F019D0020E686E010E29
:100F1A00696E520E5B6E650E5C6E610E5D6E630EDF
:100F2A005E6E680E5F6E650E606E640E616E626A5A
:0E0F3A005B0E6A6E000E6B6E0AEC03F0120086
:100F480000EC08F09ADEBDDE9EDEC0DE020E356ED5
:100F5800000E366EF1DE00C031F001C032F002C082
:100F680033F003C034F000C035F001C036F002C0E1
:100F780037F003C038F065DF31C035F032C036F0E5
:100F880033C037F034C038F022DF38DEDFD7FFD780
:1010000010EE15F00B0E006E010E016EF50EF66E71
:0E1010000F0EF76E000EF86E69EC03F0120082
:100F98006D6F746F7220726F7461746520746F2046
:0A0FA80074686520526967687400E0
:100FB2006D6F746F7220726F7461746520746F202C
:090FC200746865204C656674003A
:100FCB0044656372656173696E672046414E4F4697
:020FDB004600CE
:100FDD00496E6372656173696E6746414E4F4E008F
:080FED00526561636865640050
:040FF5004E614E00FB
:020FF9003000C6
:040FFB00494E460015
:010FFF000FE2
:020000040030CA
:0D000100220F0EFF0181FF0FC00FE00F4026
:00000001FF
