:10000000F1EF06F00000000000EF00F0000000003B
:0A0010000000000000000000F3D71C
:10001C000F0E0C6E470E0D6E0D2EFED70C2EFCD750
:06002C00000000001200BC
:06003200000000001200B6
:0A003800210E0D6E0D2EFED71200F2
:0E004200026A016A006A086A036A000E120070
:100050000B840BAE33EF00F0010E036E026A016AEF
:0A006000006A0A360232FF0E120099
:08006A000AAE029E000E120016
:1000720069BE02D08C9E01D08C8E69BC02D08C9C51
:1000820001D08C8C69BA02D08C9A01D08C8A69B862
:1000920002D08C9801D08C8820B002D08D8401D0FF
:1000A2008D948D82C5DF8D9269B602D08C9E01D06F
:1000B2008C8E69B402D08C9C01D08C8C69B202D037
:1000C2008C9A01D08C8A69B002D08C9801D08C882D
:1000D20020B002D08D8401D08D948D82A9DF8D92C3
:0C00E20020A002D09ADF01D0A6DF12009F
:1000EE000B820BAE81EF00F00368026801680068B6
:0800FE000A360232FF0E120067
:0C010600209065C069F0B2DF208012007C
:0C0112000E0E0D6E0D2EFED70000120028
:10011E000C6A0E6A0250D8A4A8EF00F001C002F0DB
:10012E0000C001F0006A0E860250D8A4A8EF00F0BD
:10013E0001C002F0016A0E960E880250D8B4BAEFD2
:10014E0000F00E50035ED8A4D8A0BFEF00F0D890F8
:10015E0002BEC4EF00F0003601360236032EAFEFBA
:10016E0000F0BFEF00F0010E0C6E64DFC7EF00F081
:10017E00020E0C6E66DFC7EF00F0040E0C6E6EDF23
:02018E0012005D
:10019000086A096A000E076203644DEF01F002501D
:1001A00006180A6E075003267E0ED8A0DEEF00F078
:1001B000035ED8B051EF01F0E2EF00F0035ED8A08B
:1001C00055EF01F0028E068E02C00EF001C00BF05A
:1001D00000C00DF000500402F4CF0CF001500502F5
:1001E000F4CF00F0F3CF08F00402F3500C26F450E3
:1001F0000822000E00220D500502F3500C26F45088
:100200000822000E002202500402F3500826F45087
:10021000002202500502016A000E0122F35000265E
:10022000F45001220D500602F3500826F45000222B
:10023000026A000E012202220B500602F350002631
:10024000F4500122000E02220E500602F350012645
:10025000F450022202BE35EF01F0083600360136B6
:1002600002360306D8B455EF01F048EF01F0D8800C
:10027000800E08640030000E002201220222D8A065
:1002800048EF01F0023201320032034A51EF01F02F
:100290000AAE029E000E57EF01F0010ED2DE57EFBC
:1002A00001F0020E24DF57EF01F0040ED1DE120040
:1002B00065C004F066C005F004C002F005C003F09C
:1002C000044A052A67C000F068C001F0674A682A3E
:1002D00000C0E9FF01C0EAFF02C0E1FF03C0E2FF86
:1002E000EECFE6FF02C0E9FF03C0EAFFEE5201E0F5
:0C02F000E3D765C000F066C001F012000A
:1002FC000A6A0350D8A40A800750D8A40A820A506C
:10030C00D8B4E1EF01F0030AD8B49AEF01F00AB0C7
:10031C0095EF01F006AEDFEF01F0DDEF01F002AE7C
:10032C00DDEF01F0DFEF01F00250800B0A6E029E50
:10033C000650800B069E0A18D8B4ABEF01F00A5099
:10034C00D8B4DDEF01F0DFEF01F00750035CD8B457
:10035C00B5EF01F0D8A0D1EF01F0D7EF01F00650C6
:10036C00025CD8B4BFEF01F0D8A0D1EF01F0D7EF09
:10037C0001F00550015CD8B4C9EF01F0D8A0D1EF61
:10038C0001F0D7EF01F00450005CD8B4E1EF01F0BC
:10039C00D8B0D7EF01F00A52D8B4DFEF01F0DDEF9F
:1003AC0001F00A52D8B4DDEF01F0DFEF01F0D88094
:0E03BC001200D8901200D880D88412001200CF
:1003CA000D6A086A0050D8B4000C04180A6E0ABEF6
:1003DA000D1E0B6A04AE02D0041E042A00AE02D01F
:1003EA00001E002A005004100A6E0ABE1FD00450D4
:1003FA00085E003600340836045008260036060E19
:10040A000C6E00340836045000B0085E00A00826BE
:10041A0000360C2EF6D700A008260BB015D00DAE6C
:10042A00000C001E002A081E082A000C04AE09D07F
:10043A0000BE04D00050086E006AF1D7006A002A94
:10044A00000C001E0B2AD3D7082A0450085CD8A433
:0E045A00E6D7086A002A00AEE2D7FF0C1200B7
:10046800969296949598959A959C959E8D928D9432
:100478008C9E8C9C8C9A8C98CDDDCCDDCBDD8C8AC7
:100488008C888D82D2DD8D92C5DD8D82CEDD8D92F8
:10049800C1DD8D82CADD8D92BDDD8C988D82C5DD72
:1004A8008D92B8DD8D82C1DD8D928C9A8C8E8D8275
:1004B800BCDD8D92AFDD8C9E8C888D82B6DD8D92F1
:1004C8008C988D82B2DD8D92A5DD8D82AEDD8D9208
:1004D8008C888D82AADD8D929DDD8C988D82A5DD1C
:1004E8008D928C8E8C8C8C8A8C888D829EDD8D92E0
:0604F80091DD20801200DE
:1004FE000FD0800E536E19D0C00E536E16D0940EC0
:10050E00536E13D0D40E536E10D0800E536E0DD08A
:10051E005350010AEEE05350020AEEE05350030A24
:10052E00EEE05350040AEEE0F0D75404006E535040
:10053E00002600C053F000C069F094DD2090576A89
:10054E0057505524E96E000E5620EA6EEE520BE01F
:10055E0057505524E96E000E5620EA6EEECF65F028
:0A056E00CBDD572AEDD720801200E4
:10057800606A616A626A636A646A53C05CF054C004
:100588005DF055C05EF056C05FF05F50FF0A08E1AD
:100598005E50FF0A05E15D50FF0A02E15C50FF0A68
:1005A8000CE157C065F058C066F01C0E676E000E6F
:1005B800686E7ADE030E006E56D2010E5A6E5EAE7B
:1005C8000FD0800E5E18006E00C05EF05A2A612AB5
:1005D80057C0E1FF58C0E2FF2D0EE66E574A582A71
:1005E800000E006E5F1808E100505E1805E100502B
:1005F8005D1802E15C50000A0BE157C065F058C075
:1006080066F0150E676E000E686E4EDE006A2BD21D
:100618005F50FF0A08E15E50000A05E15D50000ADC
:1006280002E15C50000A0CE157C065F058C066F062
:10063800170E676E000E686E37DE5AC000F013D2D0
:10064800000E046E000E056E000E066E7F0E076E1D
:100658005CC000F05DC001F05EC002F05FC003F056
:1006680049DE010ED8B0000E006E00521BE05CC0DF
:1006780000F05DC001F05EC002F05FC003F0000E44
:10068800046E000E056E200E066E820E076E7CDD6F
:1006980000C05CF001C05DF002C05EF003C05FF016
:1006A8006406CED7000E046E000E056E200E066E90
:1006B800820E076E5CC000F05DC001F05EC002F003
:1006C8005FC003F017DE000ED8B0010E006E0052B6
:1006D8001BE05CC000F05DC001F05EC002F05FC0CE
:1006E80003F0CD0E046ECC0E056E4C0E066E7B0E1E
:1006F800076E4ADD00C05CF001C05DF002C05EF02C
:1007080003C05FF0642ACED7FF0E5C14086EFF0E9C
:100718005D14096E7F0E5E140A6E000E5F140B6E78
:1007280008C004F009C005F00AC006F00BC007F0C5
:1007380004360490053606360736000E5C14006E43
:10074800000E5D14016E000E5E14026EFF0E5F1443
:10075800036E00C05CF001C05DF002C05EF003C033
:100768005FF004505C10006E05505D10016E06507D
:100778005E10026E07505F10036E00C05CF001C08F
:100788005DF002C05EF003C05FF07F0E5F5C006E3C
:1007980000C05BF0010E5F6E00C004F05CC000F0AA
:1007A8005DC001F05EC002F05FC003F0045007E0D6
:1007B80000360090013602360336FF0FF8D700C026
:1007C8005CF001C05DF002C05EF003C05FF057C08E
:1007D800E1FF58C0E2FF5F50300FE66E574A582AD3
:1007E800612A800E6418006E800E010A005C08E31E
:1007F800800E060A006E800E6418005C01E30BD0C0
:1008080057C0E1FF58C0E2FF2E0EE66E574A582A3D
:10081800010E606E612A060E5B6E5B50000A58E09E
:100828005F6A5CC000F05DC001F05EC002F05FC0AE
:1008380003F0003600900136023603360036009089
:100848000136023603365C5000265D5001225E50A8
:1008580002225F50032200C05CF001C05DF002C0BC
:100868005EF003C05FF05CC000F05DC001F05EC0E8
:1008780002F05FC003F000360090013602360336FE
:1008880000C05CF001C05DF002C05EF003C05FF024
:1008980057C0E1FF58C0E2FF5F50300FE66E574A7D
:1008A800582A612A6050000A11E164066450000A5F
:1008B8000DE1010E636E57C0E1FF58C0E2FF2E0E36
:1008C800E66E574A582A010E606E612A5B06A5D764
:1008D8006350010AD8B46106FF0E5724E96EFF0E73
:1008E8005820EA6EEE502E0A05E1010E575E000E02
:1008F800585A6106800E000A006E800E6418005C6B
:1009080002E2010E626E800E6418006E800E000A0C
:10091800005C02E2020E626E64C05BF0800E090A9F
:10092800006E800E6418005C02E3622A02D0020E98
:10093800622662506124016E026A000E0222800E55
:100948000218006E800E005C02E15950015C0AE258
:1009580057C0E1FF58C0E2FF300EE66E574A582AEA
:10096800612AE7D76450000A41E057C0E1FF58C048
:10097800E2FF650EE66E574A582A800E6418006E2C
:10098800800E000A005C0BE257C0E1FF58C0E2FF8E
:100998002D0EE66E574A582A64500008646E64C0EB
:1009A8005BF0800E090A006E800E6418005C0EE28F
:1009B8000A0E046E5BC000F004DD57C0E1FF58C0AA
:1009C800E2FF0050300FE66E574A582A0A0E046EAE
:1009D8005BC000F0F6DC08C000F057C0E1FF58C06B
:1009E800E2FF0050300FE66E574A582A62506124E1
:1009F800006E00C061F05950005C016E01C05BF0F0
:100A0800800E000A006E800E0118005C0EE2800E57
:100A1800000A006E800E5B18005C06E25B06010EA1
:100A2800575E000E585AF3D718D0800E5B18006E28
:100A3800800E000A005C11E2800E5B18006E800ECA
:100A4800000A005C0AE25B2A57C0E1FF58C0E2FFD7
:100A5800300EE66E574A582AEFD757C0E1FF58C004
:080A6800E2FFE66A006A1200D9
:100A70000900F5CFE6FF0006FBE10106F9E11200EF
:100A80000050086E0150006E016A026A036A0B6A28
:100A90000C6A960E036E0A6A00C001F008C000F0EE
:0A0AA000086A026A8FEC00F01200F1
:100AAA0082A412D082A010D0020E826E020E0B6EA9
:100ABA00040E0C6EBA0E0D6E0D2EFED70C2EFCD740
:100ACA000B2EFAD700003BD082A412D082A610D0F7
:100ADA00100E826E020E0B6E040E0C6EBA0E0D6EA6
:100AEA000D2EFED70C2EFCD70B2EFAD7000027D0DE
:100AFA0082B412D082A210D0010E826E020E0B6E48
:100B0A00040E0C6EBA0E0D6E0D2EFED70C2EFCD7EF
:100B1A000B2EFAD7000013D082B411D082A80FD0BE
:100B2A00080E826E020E0B6E040E0C6EBA0E0D6E5D
:100B3A000D2EFED70C2EFCD70B2EFAD70000120072
:100B4A00C26AC00EC2121B1C006E0050C116C18CB4
:100B5A00C18E53C000F00036009000360090003677
:100B6A0000900050C212C28089EC00F0C284C2A474
:100B7A0001D0FDD7C4CF01F0006AC3500012000EA5
:060B8A000112C2901200EE
:100B90006BDC010E696E39EC00F00C0E696E39ECFD
:100BA00000F0010E536E010E546E540E256E650E4C
:100BB000266E6D0E276E700E286E3A0E296E2A6A0A
:0C0BC000250E556E000E566E9ADC1200D9
:0C0BCC00030EC16E040E946E92821200A3
:0A0BD800956AFF0E926E966A1200F5
:100BE20025C053F0B1DF4BDF000E046E000E056E20
:100BF2007A0E066E7D0E076EC8EC00F000C027F07C
:100C020001C028F002C029F003C02AF000C053F04E
:100C120001C054F002C055F003C056F02B0E576EBF
:100C2200000E586E040E596EA6DC010E536E060EAF
:100C3200546E2B0E556E000E566E60DC010E536E16
:100C42000C0E546E540E306E650E316E610E326EA5
:100C52006D0E336E330E346E356A300E556E000EE5
:100C6200566E4CDC27C000F028C001F029C002F00B
:060C72002AC003F012008D
:100C780025C004F026C005F027C006F028C007F0FC
:100C8800000E006E000E016E0C0E026E840E036ED6
:100C98007EEC01F0010ED8B0000E006E005219E093
:100CA800020E536E010E546E2E0EF66E0E0EF76E79
:100CB800000EF86E290EE16E000EE26E120E006E46
:100CC800010E016ED1DE290E556E000E566E13DC34
:100CD8004BD025C004F026C005F027C006F028C078
:100CE80007F0000E006E000E016E700E026E830E8D
:100CF800036E7EEC01F0000ED8B0010E006E0052BB
:100D08001AE0020E536E010E546E400EF66E0E0E71
:100D1800F76E000EF86E3B0EE16E000EE26E100EDE
:100D2800006E010E016EA0DE3B0E556E000E566E73
:100D38007FEC02F019D0020E536E010E546E520E63
:100D48004B6E650E4C6E610E4D6E630E4E6E680EE8
:100D58004F6E650E506E640E516E526A4B0E556E94
:0A0D6800000E566E7FEC02F0120040
:100D720025C004F026C005F027C006F028C007F001
:100D8200000E006E000E016E0C0E026E840E036EDB
:100D92007EEC01F0010ED8B0000E006E005203E0AE
:100DA200828682DE1CD025C004F026C005F027C052
:100DB20006F028C007F0000E006E000E016E700EE5
:100DC200026E830E036E7EEC01F0000ED8B0010EAF
:100DD200006E005203E0828067DE01D0826A120058
:100DE20032EC07F0F2DEF7DED2DE020E256E000EE6
:100DF200266EF6DE00C021F001C022F002C023F010
:100E020003C024F000C025F001C026F002C027F084
:100E120003C028F030DF21C025F022C026F023C015
:0C0E220027F024C028F0A4DFE0D7FFD7A1
:100E640010EE15F00B0E006E010E016E580EF66EAC
:0E0E74000E0EF76E000EF86E38EC05F0120050
:100E2E0044656372656173696E672046414E4F4635
:020E3E0046006C
:100E4000496E6372656173696E6746414E4F4E002D
:080E50005265616368656400EE
:020E5800300068
:040E5A00494E4600B7
:010E5E000F84
:040E5F004E614E0092
:020000040030CA
:0D000100220F0EFF0181FF0FC00FE00F4026
:00000001FF
