:10000000B1EF06F00000000000EF00F0000000007B
:0A0010000000000000000000F3D71C
:10001C000F0E0C6E470E0D6E0D2EFED70C2EFCD750
:06002C00000000001200BC
:06003200000000001200B6
:0A003800210E0D6E0D2EFED71200F2
:0E004200026A016A006A086A036A000E120070
:100050000B840BAE33EF00F0010E036E026A016AEF
:0A006000006A0A360232FF0E120099
:08006A000AAE029E000E120016
:100072006ABE02D08C9E01D08C8E6ABC02D08C9C4F
:1000820001D08C8C6ABA02D08C9A01D08C8A6AB860
:1000920002D08C9801D08C8848B002D08D8401D0D7
:1000A2008D948D82C5DF8D926AB602D08C9E01D06E
:1000B2008C8E6AB402D08C9C01D08C8C6AB202D035
:1000C2008C9A01D08C8A6AB002D08C9801D08C882C
:1000D20048B002D08D8401D08D948D82A9DF8D929B
:0C00E20048A002D09ADF01D0A6DF120077
:1000EE000B820BAE81EF00F00368026801680068B6
:0800FE000A360232FF0E120067
:0C010600489066C06AF0B2DF488012002A
:0C0112000E0E0D6E0D2EFED70000120028
:10011E000C6A0E6A0250D8A4A8EF00F001C002F0DB
:10012E0000C001F0006A0E860250D8A4A8EF00F0BD
:10013E0001C002F0016A0E960E880250D8B4BAEFD2
:10014E0000F00E50035ED8A4D8A0BFEF00F0D890F8
:10015E0002BEC4EF00F0003601360236032EAFEFBA
:10016E0000F0BFEF00F0010E0C6E64DFC7EF00F081
:10017E00020E0C6E66DFC7EF00F0040E0C6E6EDF23
:02018E0012005D
:10019000086A096A000E076203644DEF01F002501D
:1001A00006180A6E075003267E0ED8A0DEEF00F078
:1001B000035ED8B051EF01F0E2EF00F0035ED8A08B
:1001C00055EF01F0028E068E02C00EF001C00BF05A
:1001D00000C00DF000500402F4CF0CF001500502F5
:1001E000F4CF00F0F3CF08F00402F3500C26F450E3
:1001F0000822000E00220D500502F3500C26F45088
:100200000822000E002202500402F3500826F45087
:10021000002202500502016A000E0122F35000265E
:10022000F45001220D500602F3500826F45000222B
:10023000026A000E012202220B500602F350002631
:10024000F4500122000E02220E500602F350012645
:10025000F450022202BE35EF01F0083600360136B6
:1002600002360306D8B455EF01F048EF01F0D8800C
:10027000800E08640030000E002201220222D8A065
:1002800048EF01F0023201320032034A51EF01F02F
:100290000AAE029E000E57EF01F0010ED2DE57EFBC
:1002A00001F0020E24DF57EF01F0040ED1DE120040
:1002B00066C004F067C005F004C002F005C003F09A
:1002C000044A052A68C000F069C001F0684A692A3A
:1002D00000C0E9FF01C0EAFF02C0E1FF03C0E2FF86
:1002E000EECFE6FF02C0E9FF03C0EAFFEE5201E0F5
:0C02F000E3D766C000F067C001F0120008
:1002FC000A6A0350D8A40A800750D8A40A820A506C
:10030C00D8B4E1EF01F0030AD8B49AEF01F00AB0C7
:10031C0095EF01F006AEDFEF01F0DDEF01F002AE7C
:10032C00DDEF01F0DFEF01F00250800B0A6E029E50
:10033C000650800B069E0A18D8B4ABEF01F00A5099
:10034C00D8B4DDEF01F0DFEF01F00750035CD8B457
:10035C00B5EF01F0D8A0D1EF01F0D7EF01F00650C6
:10036C00025CD8B4BFEF01F0D8A0D1EF01F0D7EF09
:10037C0001F00550015CD8B4C9EF01F0D8A0D1EF61
:10038C0001F0D7EF01F00450005CD8B4E1EF01F0BC
:10039C00D8B0D7EF01F00A52D8B4DFEF01F0DDEF9F
:1003AC0001F00A52D8B4DDEF01F0DFEF01F0D88094
:0E03BC001200D8901200D880D88412001200CF
:1003CA000D6A086A0050D8B4000C04180A6E0ABEF6
:1003DA000D1E0B6A04AE02D0041E042A00AE02D01F
:1003EA00001E002A005004100A6E0ABE1FD00450D4
:1003FA00085E003600340836045008260036060E19
:10040A000C6E00340836045000B0085E00A00826BE
:10041A0000360C2EF6D700A008260BB015D00DAE6C
:10042A00000C001E002A081E082A000C04AE09D07F
:10043A0000BE04D00050086E006AF1D7006A002A94
:10044A00000C001E0B2AD3D7082A0450085CD8A433
:0E045A00E6D7086A002A00AEE2D7FF0C1200B7
:10046800969296949598959A959C959E8D928D9432
:100478008C9E8C9C8C9A8C98CDDDCCDDCBDD8C8AC7
:100488008C888D82D2DD8D92C5DD8D82CEDD8D92F8
:10049800C1DD8D82CADD8D92BDDD8C988D82C5DD72
:1004A8008D92B8DD8D82C1DD8D928C9A8C8E8D8275
:1004B800BCDD8D92AFDD8C9E8C888D82B6DD8D92F1
:1004C8008C988D82B2DD8D92A5DD8D82AEDD8D9208
:1004D8008C888D82AADD8D929DDD8C988D82A5DD1C
:1004E8008D928C8E8C8C8C8A8C888D829EDD8D92E0
:0604F80091DD48801200B6
:1004FE000FD0800E546E19D0C00E546E16D0940EBE
:10050E00546E13D0D40E546E10D0800E546E0DD087
:10051E005450010AEEE05450020AEEE05450030A21
:10052E00EEE05450040AEEE0F0D75504006E54503D
:10053E00002600C054F000C06AF094DD4890586A5E
:10054E0058505624E96E000E5720EA6EEE520BE01C
:10055E0058505624E96E000E5720EA6EEECF66F024
:0A056E00CBDD582AEDD748801200BB
:10057800616A626A636A646A656A54C05DF055C0FC
:100588005EF056C05FF057C060F06050FF0A08E1A7
:100598005F50FF0A05E15E50FF0A02E15D50FF0A65
:1005A8000CE158C066F059C067F03B0E686E000E4B
:1005B800696E7ADE030E006E56D2010E5B6E5FAE78
:1005C8000FD0800E5F18006E00C05FF05B2A622AB1
:1005D80058C0E1FF59C0E2FF2D0EE66E584A592A6D
:1005E800000E006E601808E100505F1805E1005029
:1005F8005E1802E15D50000A0BE158C066F059C070
:1006080067F0390E686E000E696E4EDE006A2BD2F6
:100618006050FF0A08E15F50000A05E15E50000AD9
:1006280002E15D50000A0CE158C066F059C067F05D
:100638003F0E686E000E696E37DE5BC000F013D2A5
:10064800000E046E000E056E000E066E7F0E076E1D
:100658005DC000F05EC001F05FC002F060C003F052
:1006680049DE010ED8B0000E006E00521BE05DC0DE
:1006780000F05EC001F05FC002F060C003F0000E41
:10068800046E000E056E200E066E820E076E7CDD6F
:1006980000C05DF001C05EF002C05FF003C060F012
:1006A8006506CED7000E046E000E056E200E066E8F
:1006B800820E076E5DC000F05EC001F05FC002F000
:1006C80060C003F017DE000ED8B0010E006E0052B5
:1006D8001BE05DC000F05EC001F05FC002F060C0CA
:1006E80003F0CD0E046ECC0E056E4C0E066E7B0E1E
:1006F800076E4ADD00C05DF001C05EF002C05FF029
:1007080003C060F0652ACED7FF0E5D14086EFF0E99
:100718005E14096E7F0E5F140A6E000E60140B6E75
:1007280008C004F009C005F00AC006F00BC007F0C5
:1007380004360490053606360736000E5D14006E42
:10074800000E5E14016E000E5F14026EFF0E601440
:10075800036E00C05DF001C05EF002C05FF003C030
:1007680060F004505D10006E05505E10016E06507A
:100778005F10026E07506010036E00C05DF001C08C
:100788005EF002C05FF003C060F07F0E605C006E38
:1007980000C05CF0010E606E00C004F05DC000F0A7
:1007A8005EC001F05FC002F060C003F0045007E0D3
:1007B80000360090013602360336FF0FF8D700C026
:1007C8005DF001C05EF002C05FF003C060F058C089
:1007D800E1FF59C0E2FF6050300FE66E584A592ACF
:1007E800622A800E6518006E800E010A005C08E31C
:1007F800800E060A006E800E6518005C01E30BD0BF
:1008080058C0E1FF59C0E2FF2E0EE66E584A592A39
:10081800010E616E622A060E5C6E5C50000A58E09A
:10082800606A5DC000F05EC001F05FC002F060C0A9
:1008380003F0003600900136023603360036009089
:100848000136023603365D5000265E5001225F50A5
:1008580002226050032200C05DF001C05EF002C0B9
:100868005FF003C060F05DC000F05EC001F05FC0E3
:1008780002F060C003F000360090013602360336FD
:1008880000C05DF001C05EF002C05FF003C060F020
:1008980058C0E1FF59C0E2FF6050300FE66E584A79
:1008A800592A622A6150000A11E165066550000A5A
:1008B8000DE1010E646E58C0E1FF59C0E2FF2E0E33
:1008C800E66E584A592A010E616E622A5C06A5D75F
:1008D8006450010AD8B46206FF0E5824E96EFF0E70
:1008E8005920EA6EEE502E0A05E1010E585E000E00
:1008F800595A6206800E000A006E800E6518005C68
:1009080002E2010E636E800E6518006E800E000A0A
:10091800005C02E2020E636E65C05CF0800E090A9C
:10092800006E800E6518005C02E3632A02D0020E96
:10093800632663506224016E026A000E0222800E52
:100948000218006E800E005C02E15A50015C0AE257
:1009580058C0E1FF59C0E2FF300EE66E584A592AE6
:10096800622AE7D76550000A41E058C0E1FF59C044
:10097800E2FF650EE66E584A592A800E6518006E29
:10098800800E000A005C0BE258C0E1FF59C0E2FF8C
:100998002D0EE66E584A592A65500008656E65C0E6
:1009A8005CF0800E090A006E800E6518005C0EE28D
:1009B8000A0E046E5CC000F004DD58C0E1FF59C0A7
:1009C800E2FF0050300FE66E584A592A0A0E046EAC
:1009D8005CC000F0F6DC08C000F058C0E1FF59C068
:1009E800E2FF0050300FE66E584A592A63506224DD
:1009F800006E00C062F05A50005C016E01C05CF0ED
:100A0800800E000A006E800E0118005C0EE2800E57
:100A1800000A006E800E5C18005C06E25C06010E9F
:100A2800585E000E595AF3D718D0800E5C18006E25
:100A3800800E000A005C11E2800E5C18006E800EC9
:100A4800000A005C0AE25C2A58C0E1FF59C0E2FFD4
:100A5800300EE66E584A592AEFD758C0E1FF59C000
:080A6800E2FFE66A006A1200D9
:100A700082A412D082A010D0020E826E020E0B6EE3
:100A8000040E0C6EBA0E0D6E0D2EFED70C2EFCD77A
:100A90000B2EFAD700003BD082A412D082A610D031
:100AA000100E826E020E0B6E040E0C6EBA0E0D6EE0
:100AB0000D2EFED70C2EFCD70B2EFAD7000027D018
:100AC00082B412D082A210D0010E826E020E0B6E82
:100AD000040E0C6EBA0E0D6E0D2EFED70C2EFCD72A
:100AE0000B2EFAD7000013D082B411D082A80FD0F9
:100AF000080E826E020E0B6E040E0C6EBA0E0D6E98
:100B00000D2EFED70C2EFCD70B2EFAD700001200AC
:100B10000050086E0150006E016A026A036A0B6A97
:100B20000C6A960E036E0A6A00C001F008C000F05D
:0A0B3000086A026A8FEC00F0120060
:100B3A00C26AC00EC212431C006E0050C116C18C9C
:100B4A00C18E54C000F00036009000360090003686
:100B5A0000900050C212C28089EC00F0C284C2A484
:100B6A0001D0FDD7C4CF01F0006AC3500012000EB5
:060B7A000112C2901200FE
:100B800073DC010E6A6E39EC00F00C0E6A6E39EC03
:100B900000F0010E546E010E556E1D0E566E000EC5
:060BA000576EADDC1200EF
:0A0BA600956AFF0E926E966A120027
:0C0BB000030EC16E040E946E92821200BF
:100BBC000900F5CFE6FF0006FBE10106F9E11200A2
:100BCC0049C004F04AC005F04BC006F04CC007F019
:100BDC00000E006E000E016E0C0E026E840E036E83
:100BEC007EEC01F0010ED8B0000E006E00520AE04F
:100BFC00020E546E010E556E2E0E566E000E576E72
:100C0C0078DC2BD049C004F04AC005F04BC006F08C
:100C1C004CC007F0000E006E000E016E700E026EDE
:100C2C00830E036E7EEC01F0000ED8B0010E006E48
:100C3C0000520AE0020E546E010E556E230E566ED3
:100C4C00000E576E56DC09D0020E546E010E556E16
:0C0C5C00150E566E000E576E4CDC120098
:100C680049C004F04AC005F04BC006F04CC007F07C
:100C7800000E006E000E016E0C0E026E840E036EE6
:100C88007EEC01F0010ED8B0000E006E005203E0B9
:100C98008286EADE1CD049C004F04AC005F04BC089
:100CA80006F04CC007F0000E006E000E016E700ECC
:100CB800026E830E036E7EEC01F0000ED8B0010EBA
:100CC800006E005203E08280CFDE01D0826A1200FB
:100CD80049C054F02EDF18DF000E046E000E056EBA
:100CE8007A0E066E7D0E076EC8EC00F000C04BF061
:100CF80001C04CF002C04DF003C04EF000C054F0EB
:100D080001C055F002C056F003C057F04F0E586EA0
:100D1800000E596E040E5A6E2BDC010E546E060E30
:100D2800556E4F0E566E000E576E7FEC02F0020E97
:100D38000B6E040E0C6EBA0E0D6E0D2EFED70C2E19
:100D4800FCD70B2EFAD700004BC000F04CC001F0C6
:0A0D58004DC002F04EC003F012007F
:100D6200EFEC06F024DF1EDF0ADF010E496E000EF3
:100D72004A6EB1DF00C044F001C045F002C046F047
:100D820003C047F000C049F001C04AF002C04BF076
:100D920003C04CF01ADF44C049F045C04AF046C0D7
:0C0DA2004BF047C04CF05FDFE0D7FFD7FC
:100DDE0010EE15F02F0E006E010E016EAE0EF66EB9
:0E0DEE000D0EF76E000EF86EDEEC05F0120032
:080DAE00526561636865640091
:060DB60054656D703A0067
:0B0DBC00496E6372656173696E670029
:0B0DC70044656372656173696E67002C
:020DD2003000EF
:040DD4004E614E001E
:040DD800494E46003A
:010DDC000F07
:020000040030CA
:0D000100220F0EFF0181FF0FC00FE00F4026
:00000001FF
